{
  "_format": "hh-sol-artifact-1",
  "contractName": "RewardDistribution",
  "sourceName": "contracts/RewardDistribution.sol",
  "abi": [
    {
      "inputs": [
        {
          "internalType": "address",
          "name": "_tokenAddress",
          "type": "address"
        }
      ],
      "stateMutability": "nonpayable",
      "type": "constructor"
    },
    {
      "inputs": [],
      "name": "AccessControlBadConfirmation",
      "type": "error"
    },
    {
      "inputs": [
        {
          "internalType": "address",
          "name": "account",
          "type": "address"
        },
        {
          "internalType": "bytes32",
          "name": "neededRole",
          "type": "bytes32"
        }
      ],
      "name": "AccessControlUnauthorizedAccount",
      "type": "error"
    },
    {
      "anonymous": false,
      "inputs": [
        {
          "indexed": false,
          "internalType": "string",
          "name": "activityType",
          "type": "string"
        },
        {
          "indexed": false,
          "internalType": "uint256",
          "name": "maxReward",
          "type": "uint256"
        },
        {
          "indexed": false,
          "internalType": "bool",
          "name": "enabled",
          "type": "bool"
        }
      ],
      "name": "ActivityConfigUpdated",
      "type": "event"
    },
    {
      "anonymous": false,
      "inputs": [
        {
          "indexed": true,
          "internalType": "address",
          "name": "student",
          "type": "address"
        },
        {
          "indexed": false,
          "internalType": "string",
          "name": "activityType",
          "type": "string"
        },
        {
          "indexed": false,
          "internalType": "uint256",
          "name": "activityId",
          "type": "uint256"
        },
        {
          "indexed": false,
          "internalType": "uint256",
          "name": "amount",
          "type": "uint256"
        },
        {
          "indexed": false,
          "internalType": "uint256",
          "name": "timestamp",
          "type": "uint256"
        }
      ],
      "name": "RewardDistributed",
      "type": "event"
    },
    {
      "anonymous": false,
      "inputs": [
        {
          "indexed": true,
          "internalType": "bytes32",
          "name": "role",
          "type": "bytes32"
        },
        {
          "indexed": true,
          "internalType": "bytes32",
          "name": "previousAdminRole",
          "type": "bytes32"
        },
        {
          "indexed": true,
          "internalType": "bytes32",
          "name": "newAdminRole",
          "type": "bytes32"
        }
      ],
      "name": "RoleAdminChanged",
      "type": "event"
    },
    {
      "anonymous": false,
      "inputs": [
        {
          "indexed": true,
          "internalType": "bytes32",
          "name": "role",
          "type": "bytes32"
        },
        {
          "indexed": true,
          "internalType": "address",
          "name": "account",
          "type": "address"
        },
        {
          "indexed": true,
          "internalType": "address",
          "name": "sender",
          "type": "address"
        }
      ],
      "name": "RoleGranted",
      "type": "event"
    },
    {
      "anonymous": false,
      "inputs": [
        {
          "indexed": true,
          "internalType": "bytes32",
          "name": "role",
          "type": "bytes32"
        },
        {
          "indexed": true,
          "internalType": "address",
          "name": "account",
          "type": "address"
        },
        {
          "indexed": true,
          "internalType": "address",
          "name": "sender",
          "type": "address"
        }
      ],
      "name": "RoleRevoked",
      "type": "event"
    },
    {
      "inputs": [],
      "name": "DEFAULT_ADMIN_ROLE",
      "outputs": [
        {
          "internalType": "bytes32",
          "name": "",
          "type": "bytes32"
        }
      ],
      "stateMutability": "view",
      "type": "function"
    },
    {
      "inputs": [],
      "name": "REWARDER_ROLE",
      "outputs": [
        {
          "internalType": "bytes32",
          "name": "",
          "type": "bytes32"
        }
      ],
      "stateMutability": "view",
      "type": "function"
    },
    {
      "inputs": [
        {
          "internalType": "string",
          "name": "",
          "type": "string"
        }
      ],
      "name": "activityEnabled",
      "outputs": [
        {
          "internalType": "bool",
          "name": "",
          "type": "bool"
        }
      ],
      "stateMutability": "view",
      "type": "function"
    },
    {
      "inputs": [
        {
          "internalType": "address",
          "name": "student",
          "type": "address"
        },
        {
          "internalType": "uint256",
          "name": "assignmentId",
          "type": "uint256"
        },
        {
          "internalType": "uint256",
          "name": "amount",
          "type": "uint256"
        }
      ],
      "name": "distributeAssignmentReward",
      "outputs": [],
      "stateMutability": "nonpayable",
      "type": "function"
    },
    {
      "inputs": [
        {
          "internalType": "address",
          "name": "student",
          "type": "address"
        },
        {
          "internalType": "uint256",
          "name": "courseId",
          "type": "uint256"
        },
        {
          "internalType": "uint256",
          "name": "amount",
          "type": "uint256"
        }
      ],
      "name": "distributeCourseReward",
      "outputs": [],
      "stateMutability": "nonpayable",
      "type": "function"
    },
    {
      "inputs": [
        {
          "internalType": "address",
          "name": "student",
          "type": "address"
        },
        {
          "internalType": "uint256",
          "name": "forumId",
          "type": "uint256"
        },
        {
          "internalType": "uint256",
          "name": "amount",
          "type": "uint256"
        }
      ],
      "name": "distributeForumReward",
      "outputs": [],
      "stateMutability": "nonpayable",
      "type": "function"
    },
    {
      "inputs": [
        {
          "internalType": "address",
          "name": "student",
          "type": "address"
        },
        {
          "internalType": "uint256",
          "name": "lessonId",
          "type": "uint256"
        },
        {
          "internalType": "uint256",
          "name": "amount",
          "type": "uint256"
        }
      ],
      "name": "distributeLessonReward",
      "outputs": [],
      "stateMutability": "nonpayable",
      "type": "function"
    },
    {
      "inputs": [
        {
          "internalType": "address",
          "name": "student",
          "type": "address"
        },
        {
          "internalType": "uint256",
          "name": "quizId",
          "type": "uint256"
        },
        {
          "internalType": "uint256",
          "name": "amount",
          "type": "uint256"
        }
      ],
      "name": "distributeQuizReward",
      "outputs": [],
      "stateMutability": "nonpayable",
      "type": "function"
    },
    {
      "inputs": [
        {
          "internalType": "address",
          "name": "student",
          "type": "address"
        },
        {
          "internalType": "uint256",
          "name": "reviewId",
          "type": "uint256"
        },
        {
          "internalType": "uint256",
          "name": "amount",
          "type": "uint256"
        }
      ],
      "name": "distributeReviewReward",
      "outputs": [],
      "stateMutability": "nonpayable",
      "type": "function"
    },
    {
      "inputs": [
        {
          "internalType": "address",
          "name": "student",
          "type": "address"
        },
        {
          "internalType": "uint256",
          "name": "streakDays",
          "type": "uint256"
        },
        {
          "internalType": "uint256",
          "name": "amount",
          "type": "uint256"
        }
      ],
      "name": "distributeStreakReward",
      "outputs": [],
      "stateMutability": "nonpayable",
      "type": "function"
    },
    {
      "inputs": [
        {
          "internalType": "bytes32",
          "name": "role",
          "type": "bytes32"
        }
      ],
      "name": "getRoleAdmin",
      "outputs": [
        {
          "internalType": "bytes32",
          "name": "",
          "type": "bytes32"
        }
      ],
      "stateMutability": "view",
      "type": "function"
    },
    {
      "inputs": [
        {
          "internalType": "bytes32",
          "name": "role",
          "type": "bytes32"
        },
        {
          "internalType": "address",
          "name": "account",
          "type": "address"
        }
      ],
      "name": "grantRole",
      "outputs": [],
      "stateMutability": "nonpayable",
      "type": "function"
    },
    {
      "inputs": [
        {
          "internalType": "address",
          "name": "",
          "type": "address"
        },
        {
          "internalType": "string",
          "name": "",
          "type": "string"
        },
        {
          "internalType": "uint256",
          "name": "",
          "type": "uint256"
        }
      ],
      "name": "hasReceivedReward",
      "outputs": [
        {
          "internalType": "bool",
          "name": "",
          "type": "bool"
        }
      ],
      "stateMutability": "view",
      "type": "function"
    },
    {
      "inputs": [
        {
          "internalType": "address",
          "name": "student",
          "type": "address"
        },
        {
          "internalType": "string",
          "name": "activityType",
          "type": "string"
        },
        {
          "internalType": "uint256",
          "name": "activityId",
          "type": "uint256"
        }
      ],
      "name": "hasReceivedRewardFor",
      "outputs": [
        {
          "internalType": "bool",
          "name": "",
          "type": "bool"
        }
      ],
      "stateMutability": "view",
      "type": "function"
    },
    {
      "inputs": [
        {
          "internalType": "bytes32",
          "name": "role",
          "type": "bytes32"
        },
        {
          "internalType": "address",
          "name": "account",
          "type": "address"
        }
      ],
      "name": "hasRole",
      "outputs": [
        {
          "internalType": "bool",
          "name": "",
          "type": "bool"
        }
      ],
      "stateMutability": "view",
      "type": "function"
    },
    {
      "inputs": [
        {
          "internalType": "string",
          "name": "",
          "type": "string"
        }
      ],
      "name": "maxRewardPerActivity",
      "outputs": [
        {
          "internalType": "uint256",
          "name": "",
          "type": "uint256"
        }
      ],
      "stateMutability": "view",
      "type": "function"
    },
    {
      "inputs": [
        {
          "internalType": "bytes32",
          "name": "role",
          "type": "bytes32"
        },
        {
          "internalType": "address",
          "name": "callerConfirmation",
          "type": "address"
        }
      ],
      "name": "renounceRole",
      "outputs": [],
      "stateMutability": "nonpayable",
      "type": "function"
    },
    {
      "inputs": [
        {
          "internalType": "bytes32",
          "name": "role",
          "type": "bytes32"
        },
        {
          "internalType": "address",
          "name": "account",
          "type": "address"
        }
      ],
      "name": "revokeRole",
      "outputs": [],
      "stateMutability": "nonpayable",
      "type": "function"
    },
    {
      "inputs": [
        {
          "internalType": "bytes4",
          "name": "interfaceId",
          "type": "bytes4"
        }
      ],
      "name": "supportsInterface",
      "outputs": [
        {
          "internalType": "bool",
          "name": "",
          "type": "bool"
        }
      ],
      "stateMutability": "view",
      "type": "function"
    },
    {
      "inputs": [],
      "name": "token",
      "outputs": [
        {
          "internalType": "contract LearnHubToken",
          "name": "",
          "type": "address"
        }
      ],
      "stateMutability": "view",
      "type": "function"
    },
    {
      "inputs": [
        {
          "internalType": "string",
          "name": "activityType",
          "type": "string"
        },
        {
          "internalType": "uint256",
          "name": "maxReward",
          "type": "uint256"
        },
        {
          "internalType": "bool",
          "name": "enabled",
          "type": "bool"
        }
      ],
      "name": "updateActivityConfig",
      "outputs": [],
      "stateMutability": "nonpayable",
      "type": "function"
    }
  ],
  "bytecode": "0x60806040523480156200001157600080fd5b50604051620020703803806200207083398101604081905262000034916200046c565b6001600160a01b0381166200008f5760405162461bcd60e51b815260206004820152601560248201527f496e76616c696420746f6b656e20616464726573730000000000000000000000604482015260640160405180910390fd5b600180546001600160a01b0319166001600160a01b038316179055620000b7600033620003bd565b50620000e47fbeec13769b5f410b0584f69811bfd923818456d5edcf426b0e31cf90eed7a3f633620003bd565b50678ac7230489e8000060026040516200010a90653632b9b9b7b760d11b815260060190565b908152604051908190036020018120919091556338bab4bd60e11b81526802b5e3af16b1880000906002906004019081526040519081900360200181209190915569185cdcda59db9b595b9d60b21b815268056bc75e2d6310000090600290600a019081526040519081900360200181209190915565636f7572736560d01b8152681b1ae4d6e2ef50000090600290600601908152604051908190036020018120919091556572657669657760d01b8152674563918244f40000906002906006019081526040519081900360200181209190915564666f72756d60d81b8152674563918244f4000090600290600501908152604051908190036020018120919091556573747265616b60d01b81526802b5e3af16b18800009060029060060190815260405190819003602001812091909155653632b9b9b7b760d11b8152600190600390600601908152604051908190036020018120805492151560ff19909316929092179091556338bab4bd60e11b8152600190600390600401908152604051908190036020018120805492151560ff199093169290921790915569185cdcda59db9b595b9d60b21b8152600190600390600a01908152604051908190036020018120805492151560ff199093169290921790915565636f7572736560d01b8152600190600390600601908152604051908190036020018120805492151560ff19909316929092179091556572657669657760d01b8152600190600390600601908152604051908190036020018120805492151560ff199093169290921790915564666f72756d60d81b8152600190600390600501908152604051908190036020018120805492151560ff19909316929092179091556573747265616b60d01b8152600190600390600601908152604051908190036020019020805491151560ff19909216919091179055506200049e565b6000828152602081815260408083206001600160a01b038516845290915281205460ff1662000462576000838152602081815260408083206001600160a01b03861684529091529020805460ff19166001179055620004193390565b6001600160a01b0316826001600160a01b0316847f2f8788117e7eff1d82e926ec794901d17c78024a50270940304540a733656f0d60405160405180910390a450600162000466565b5060005b92915050565b6000602082840312156200047f57600080fd5b81516001600160a01b03811681146200049757600080fd5b9392505050565b611bc280620004ae6000396000f3fe608060405234801561001057600080fd5b50600436106101375760003560e01c80639105fb05116100b8578063a217fddf1161007c578063a217fddf146102f5578063a6e8dad6146102fd578063ae3f11dc14610310578063d39746a214610323578063d547741f14610336578063fc0c546a1461034957600080fd5b80639105fb051461027e57806391d148541461029157806393f2c48d146102a45780639f69faa8146102b7578063a1c9845e146102e257600080fd5b806336568abe116100ff57806336568abe146101eb5780634293f9bd146101fe578063603698e614610243578063719b3703146102565780638580cf761461026957600080fd5b806301ffc9a71461013c57806315a62ced146101645780631e52b2f514610179578063248a9ca3146101a75780632f2ff15d146101d8575b600080fd5b61014f61014a36600461156d565b610374565b60405190151581526020015b60405180910390f35b6101776101723660046115ba565b6103ab565b005b61014f610187366004611690565b805160208183018101805160038252928201919093012091525460ff1681565b6101ca6101b53660046116cd565b60009081526020819052604090206001015490565b60405190815260200161015b565b6101776101e63660046116e6565b6105f8565b6101776101f93660046116e6565b610623565b61014f61020c366004611712565b6004602090815260009384526040808520845180860184018051928152908401958401959095209452929052825290205460ff1681565b6101776102513660046115ba565b61065b565b6101776102643660046115ba565b6108b1565b6101ca600080516020611b4d83398151915281565b61017761028c3660046115ba565b610a0f565b61014f61029f3660046116e6565b610c49565b6101776102b23660046115ba565b610c72565b6101ca6102c5366004611690565b805160208183018101805160028252928201919093012091525481565b61014f6102f0366004611712565b610eac565b6101ca600081565b61017761030b3660046115ba565b610ef9565b61017761031e366004611769565b611139565b6101776103313660046115ba565b6111d8565b6101776103443660046116e6565b611401565b60015461035c906001600160a01b031681565b6040516001600160a01b03909116815260200161015b565b60006001600160e01b03198216637965db0b60e01b14806103a557506301ffc9a760e01b6001600160e01b03198316145b92915050565b600080516020611b4d8339815191526103c381611426565b6040516572657669657760d01b81526003906006019081526040519081900360200190205460ff1661043c5760405162461bcd60e51b815260206004820152601760248201527f52657669657720726577617264732064697361626c656400000000000000000060448201526064015b60405180910390fd5b6040516572657669657760d01b815260029060060190815260200160405180910390205482111561047f5760405162461bcd60e51b8152600401610433906117c9565b6001600160a01b0384166000908152600460205260409081902090516572657669657760d01b815260060190815260408051602092819003830190206000868152925290205460ff16156105155760405162461bcd60e51b815260206004820181905260248201527f416c726561647920726577617264656420666f722074686973207265766965776044820152606401610433565b6001600160a01b03848116600090815260046020818152604080842081516572657669657760d01b8152600681019190915281519081900360260181208986529092529092208054600160ff199091168117909155546334ff261960e21b83529092169163d3fc98649161058d918891879101611800565b600060405180830381600087803b1580156105a757600080fd5b505af11580156105bb573d6000803e3d6000fd5b50505050836001600160a01b0316600080516020611b6d8339815191528484426040516105ea9392919061183c565b60405180910390a250505050565b60008281526020819052604090206001015461061381611426565b61061d8383611433565b50505050565b6001600160a01b038116331461064c5760405163334bd91960e11b815260040160405180910390fd5b61065682826114c5565b505050565b600080516020611b4d83398151915261067381611426565b60405169185cdcda59db9b595b9d60b21b8152600390600a019081526040519081900360200190205460ff166106eb5760405162461bcd60e51b815260206004820152601b60248201527f41737369676e6d656e7420726577617264732064697361626c656400000000006044820152606401610433565b60405169185cdcda59db9b595b9d60b21b8152600290600a019081526020016040518091039020548211156107325760405162461bcd60e51b8152600401610433906117c9565b6001600160a01b03841660009081526004602052604090819020905169185cdcda59db9b595b9d60b21b8152600a0190815260408051602092819003830190206000868152925290205460ff16156107d85760405162461bcd60e51b8152602060048201526024808201527f416c726561647920726577617264656420666f7220746869732061737369676e6044820152631b595b9d60e21b6064820152608401610433565b6001600160a01b038481166000908152600460208181526040808420815169185cdcda59db9b595b9d60b21b8152600a810191909152815190819003602a0181208986529092529092208054600160ff199091168117909155546334ff261960e21b83529092169163d3fc98649161085491889187910161187c565b600060405180830381600087803b15801561086e57600080fd5b505af1158015610882573d6000803e3d6000fd5b50505050836001600160a01b0316600080516020611b6d8339815191528484426040516105ea939291906118bc565b600080516020611b4d8339815191526108c981611426565b6040516573747265616b60d01b81526003906006019081526040519081900360200190205460ff1661093d5760405162461bcd60e51b815260206004820152601760248201527f53747265616b20726577617264732064697361626c65640000000000000000006044820152606401610433565b6040516573747265616b60d01b81526002906006019081526020016040518091039020548211156109805760405162461bcd60e51b8152600401610433906117c9565b6001546040516334ff261960e21b81526001600160a01b039091169063d3fc9864906109b290879086906004016118e6565b600060405180830381600087803b1580156109cc57600080fd5b505af11580156109e0573d6000803e3d6000fd5b50505050836001600160a01b0316600080516020611b6d8339815191528484426040516105ea93929190611922565b600080516020611b4d833981519152610a2781611426565b60405165636f7572736560d01b81526003906006019081526040519081900360200190205460ff16610a9b5760405162461bcd60e51b815260206004820152601760248201527f436f7572736520726577617264732064697361626c65640000000000000000006044820152606401610433565b60405165636f7572736560d01b8152600290600601908152602001604051809103902054821115610ade5760405162461bcd60e51b8152600401610433906117c9565b6001600160a01b03841660009081526004602052604090819020905165636f7572736560d01b815260060190815260408051602092819003830190206000868152925290205460ff1615610b745760405162461bcd60e51b815260206004820181905260248201527f416c726561647920726577617264656420666f72207468697320636f757273656044820152606401610433565b6001600160a01b038481166000908152600460208181526040808420815165636f7572736560d01b8152600681019190915281519081900360260181208986529092529092208054600160ff199091168117909155546334ff261960e21b83529092169163d3fc986491610bec918891879101611948565b600060405180830381600087803b158015610c0657600080fd5b505af1158015610c1a573d6000803e3d6000fd5b50505050836001600160a01b0316600080516020611b6d8339815191528484426040516105ea93929190611984565b6000918252602082815260408084206001600160a01b0393909316845291905290205460ff1690565b600080516020611b4d833981519152610c8a81611426565b604051653632b9b9b7b760d11b81526003906006019081526040519081900360200190205460ff16610cfe5760405162461bcd60e51b815260206004820152601760248201527f4c6573736f6e20726577617264732064697361626c65640000000000000000006044820152606401610433565b604051653632b9b9b7b760d11b8152600290600601908152602001604051809103902054821115610d415760405162461bcd60e51b8152600401610433906117c9565b6001600160a01b038416600090815260046020526040908190209051653632b9b9b7b760d11b815260060190815260408051602092819003830190206000868152925290205460ff1615610dd75760405162461bcd60e51b815260206004820181905260248201527f416c726561647920726577617264656420666f722074686973206c6573736f6e6044820152606401610433565b6001600160a01b0384811660009081526004602081815260408084208151653632b9b9b7b760d11b8152600681019190915281519081900360260181208986529092529092208054600160ff199091168117909155546334ff261960e21b83529092169163d3fc986491610e4f9188918791016119aa565b600060405180830381600087803b158015610e6957600080fd5b505af1158015610e7d573d6000803e3d6000fd5b50505050836001600160a01b0316600080516020611b6d8339815191528484426040516105ea939291906119e6565b6001600160a01b0383166000908152600460205260408082209051610ed2908590611a30565b908152604080516020928190038301902060009485529091529091205460ff169392505050565b600080516020611b4d833981519152610f1181611426565b60405164666f72756d60d81b81526003906005019081526040519081900360200190205460ff16610f7d5760405162461bcd60e51b8152602060048201526016602482015275119bdc9d5b481c995dd85c991cc8191a5cd8589b195960521b6044820152606401610433565b60405164666f72756d60d81b8152600290600501908152602001604051809103902054821115610fbf5760405162461bcd60e51b8152600401610433906117c9565b6001600160a01b03841660009081526004602052604090819020905164666f72756d60d81b815260050190815260408051602092819003830190206000868152925290205460ff16156110655760405162461bcd60e51b815260206004820152602860248201527f416c726561647920726577617264656420666f72207468697320666f72756d20604482015267616374697669747960c01b6064820152608401610433565b6001600160a01b038481166000908152600460208181526040808420815164666f72756d60d81b8152600581019190915281519081900360250181208986529092529092208054600160ff199091168117909155546334ff261960e21b83529092169163d3fc9864916110dc918891879101611a4c565b600060405180830381600087803b1580156110f657600080fd5b505af115801561110a573d6000803e3d6000fd5b50505050836001600160a01b0316600080516020611b6d8339815191528484426040516105ea93929190611a87565b600061114481611426565b826002856040516111559190611a30565b908152602001604051809103902081905550816003856040516111789190611a30565b908152604051908190036020018120805492151560ff19909316929092179091557fb90b27e3510a7525395dfd7479116b3dad4f1ec5191cc50fc40ca2cac2f464af906111ca90869086908690611aac565b60405180910390a150505050565b600080516020611b4d8339815191526111f081611426565b6040516338bab4bd60e11b81526003906004019081526040519081900360200190205460ff1661125a5760405162461bcd60e51b8152602060048201526015602482015274145d5a5e881c995dd85c991cc8191a5cd8589b1959605a1b6044820152606401610433565b6040516338bab4bd60e11b815260029060040190815260200160405180910390205482111561129b5760405162461bcd60e51b8152600401610433906117c9565b6001600160a01b03841660009081526004602081905260409182902091516338bab4bd60e11b81520190815260408051602092819003830190206000868152925290205460ff161561132f5760405162461bcd60e51b815260206004820152601e60248201527f416c726561647920726577617264656420666f722074686973207175697a00006044820152606401610433565b6001600160a01b03848116600090815260046020818152604080842081516338bab4bd60e11b81528085019190915281519081900360240181208986529092529092208054600160ff199091168117909155546334ff261960e21b83529092169163d3fc9864916113a4918891879101611aee565b600060405180830381600087803b1580156113be57600080fd5b505af11580156113d2573d6000803e3d6000fd5b50505050836001600160a01b0316600080516020611b6d8339815191528484426040516105ea93929190611b28565b60008281526020819052604090206001015461141c81611426565b61061d83836114c5565b6114308133611530565b50565b600061143f8383610c49565b6114bd576000838152602081815260408083206001600160a01b03861684529091529020805460ff191660011790556114753390565b6001600160a01b0316826001600160a01b0316847f2f8788117e7eff1d82e926ec794901d17c78024a50270940304540a733656f0d60405160405180910390a45060016103a5565b5060006103a5565b60006114d18383610c49565b156114bd576000838152602081815260408083206001600160a01b0386168085529252808320805460ff1916905551339286917ff6391f5c32d9c69d2a47ea670b442974b53935d1edc7fd64eb21e047a839171b9190a45060016103a5565b61153a8282610c49565b6115695760405163e2517d3f60e01b81526001600160a01b038216600482015260248101839052604401610433565b5050565b60006020828403121561157f57600080fd5b81356001600160e01b03198116811461159757600080fd5b9392505050565b80356001600160a01b03811681146115b557600080fd5b919050565b6000806000606084860312156115cf57600080fd5b6115d88461159e565b95602085013595506040909401359392505050565b634e487b7160e01b600052604160045260246000fd5b600082601f83011261161457600080fd5b813567ffffffffffffffff8082111561162f5761162f6115ed565b604051601f8301601f19908116603f01168101908282118183101715611657576116576115ed565b8160405283815286602085880101111561167057600080fd5b836020870160208301376000602085830101528094505050505092915050565b6000602082840312156116a257600080fd5b813567ffffffffffffffff8111156116b957600080fd5b6116c584828501611603565b949350505050565b6000602082840312156116df57600080fd5b5035919050565b600080604083850312156116f957600080fd5b823591506117096020840161159e565b90509250929050565b60008060006060848603121561172757600080fd5b6117308461159e565b9250602084013567ffffffffffffffff81111561174c57600080fd5b61175886828701611603565b925050604084013590509250925092565b60008060006060848603121561177e57600080fd5b833567ffffffffffffffff81111561179557600080fd5b6117a186828701611603565b93505060208401359150604084013580151581146117be57600080fd5b809150509250925092565b60208082526019908201527f416d6f756e742065786365656473206d61782072657761726400000000000000604082015260600190565b6001600160a01b0383168152602081018290526060604082018190526006908201526572657669657760d01b6080820152600060a082016116c5565b60808152600061186260808301600681526572657669657760d01b602082015260400190565b602083019590955250604081019290925260609091015290565b6001600160a01b038316815260208101829052606060408201819052600a9082015269185cdcda59db9b595b9d60b21b6080820152600060a082016116c5565b60808152600061186260808301600a815269185cdcda59db9b595b9d60b21b602082015260400190565b6001600160a01b0383168152602081018290526060604082018190526006908201526573747265616b60d01b6080820152600060a082016116c5565b60808152600061186260808301600681526573747265616b60d01b602082015260400190565b6001600160a01b03831681526020810182905260606040820181905260069082015265636f7572736560d01b6080820152600060a082016116c5565b608081526000611862608083016006815265636f7572736560d01b602082015260400190565b6001600160a01b038316815260208101829052606060408201819052600690820152653632b9b9b7b760d11b6080820152600060a082016116c5565b6080815260006118626080830160068152653632b9b9b7b760d11b602082015260400190565b60005b83811015611a27578181015183820152602001611a0f565b50506000910152565b60008251611a42818460208701611a0c565b9190910192915050565b6001600160a01b03831681526020810182905260606040820181905260059082015264666f72756d60d81b6080820152600060a082016116c5565b608081526000611862608083016005815264666f72756d60d81b602082015260400190565b6060815260008451806060840152611acb816080850160208901611a0c565b60208301949094525090151560408201526080601f909201601f19160101919050565b6001600160a01b0383168152602081018290526060604082018190526004908201526338bab4bd60e11b6080820152600060a082016116c5565b60808152600061186260808301600481526338bab4bd60e11b60208201526040019056febeec13769b5f410b0584f69811bfd923818456d5edcf426b0e31cf90eed7a3f6776e94cbc04e0377eac5b968824ce57cc2bf635136fe28f178e63ca797890fb6a264697066735822122014f9ac7bccd23524f5f19dd238fc544f9fcf652a25238c07ec4177ded8fe12b664736f6c63430008140033",
  "linkReferences": {},
  "deployedLinkReferences": {}
}