{
  "_format": "hh-sol-artifact-1",
  "contractName": "LearnHubToken",
  "sourceName": "contracts/LearnHubToken.sol",
  "abi": [
    {
      "inputs": [],
      "stateMutability": "nonpayable",
      "type": "constructor"
    },
    {
      "inputs": [],
      "name": "AccessControlBadConfirmation",
      "type": "error"
    },
    {
      "inputs": [
        {
          "internalType": "address",
          "name": "account",
          "type": "address"
        },
        {
          "internalType": "bytes32",
          "name": "neededRole",
          "type": "bytes32"
        }
      ],
      "name": "AccessControlUnauthorizedAccount",
      "type": "error"
    },
    {
      "inputs": [
        {
          "internalType": "address",
          "name": "spender",
          "type": "address"
        },
        {
          "internalType": "uint256",
          "name": "allowance",
          "type": "uint256"
        },
        {
          "internalType": "uint256",
          "name": "needed",
          "type": "uint256"
        }
      ],
      "name": "ERC20InsufficientAllowance",
      "type": "error"
    },
    {
      "inputs": [
        {
          "internalType": "address",
          "name": "sender",
          "type": "address"
        },
        {
          "internalType": "uint256",
          "name": "balance",
          "type": "uint256"
        },
        {
          "internalType": "uint256",
          "name": "needed",
          "type": "uint256"
        }
      ],
      "name": "ERC20InsufficientBalance",
      "type": "error"
    },
    {
      "inputs": [
        {
          "internalType": "address",
          "name": "approver",
          "type": "address"
        }
      ],
      "name": "ERC20InvalidApprover",
      "type": "error"
    },
    {
      "inputs": [
        {
          "internalType": "address",
          "name": "receiver",
          "type": "address"
        }
      ],
      "name": "ERC20InvalidReceiver",
      "type": "error"
    },
    {
      "inputs": [
        {
          "internalType": "address",
          "name": "sender",
          "type": "address"
        }
      ],
      "name": "ERC20InvalidSender",
      "type": "error"
    },
    {
      "inputs": [
        {
          "internalType": "address",
          "name": "spender",
          "type": "address"
        }
      ],
      "name": "ERC20InvalidSpender",
      "type": "error"
    },
    {
      "anonymous": false,
      "inputs": [
        {
          "indexed": true,
          "internalType": "address",
          "name": "owner",
          "type": "address"
        },
        {
          "indexed": true,
          "internalType": "address",
          "name": "spender",
          "type": "address"
        },
        {
          "indexed": false,
          "internalType": "uint256",
          "name": "value",
          "type": "uint256"
        }
      ],
      "name": "Approval",
      "type": "event"
    },
    {
      "anonymous": false,
      "inputs": [
        {
          "indexed": true,
          "internalType": "bytes32",
          "name": "role",
          "type": "bytes32"
        },
        {
          "indexed": true,
          "internalType": "bytes32",
          "name": "previousAdminRole",
          "type": "bytes32"
        },
        {
          "indexed": true,
          "internalType": "bytes32",
          "name": "newAdminRole",
          "type": "bytes32"
        }
      ],
      "name": "RoleAdminChanged",
      "type": "event"
    },
    {
      "anonymous": false,
      "inputs": [
        {
          "indexed": true,
          "internalType": "bytes32",
          "name": "role",
          "type": "bytes32"
        },
        {
          "indexed": true,
          "internalType": "address",
          "name": "account",
          "type": "address"
        },
        {
          "indexed": true,
          "internalType": "address",
          "name": "sender",
          "type": "address"
        }
      ],
      "name": "RoleGranted",
      "type": "event"
    },
    {
      "anonymous": false,
      "inputs": [
        {
          "indexed": true,
          "internalType": "bytes32",
          "name": "role",
          "type": "bytes32"
        },
        {
          "indexed": true,
          "internalType": "address",
          "name": "account",
          "type": "address"
        },
        {
          "indexed": true,
          "internalType": "address",
          "name": "sender",
          "type": "address"
        }
      ],
      "name": "RoleRevoked",
      "type": "event"
    },
    {
      "anonymous": false,
      "inputs": [
        {
          "indexed": true,
          "internalType": "address",
          "name": "from",
          "type": "address"
        },
        {
          "indexed": false,
          "internalType": "uint256",
          "name": "amount",
          "type": "uint256"
        },
        {
          "indexed": false,
          "internalType": "string",
          "name": "reason",
          "type": "string"
        }
      ],
      "name": "TokensBurned",
      "type": "event"
    },
    {
      "anonymous": false,
      "inputs": [
        {
          "indexed": true,
          "internalType": "address",
          "name": "to",
          "type": "address"
        },
        {
          "indexed": false,
          "internalType": "uint256",
          "name": "amount",
          "type": "uint256"
        },
        {
          "indexed": false,
          "internalType": "string",
          "name": "activityType",
          "type": "string"
        }
      ],
      "name": "TokensMinted",
      "type": "event"
    },
    {
      "anonymous": false,
      "inputs": [
        {
          "indexed": true,
          "internalType": "address",
          "name": "from",
          "type": "address"
        },
        {
          "indexed": true,
          "internalType": "address",
          "name": "to",
          "type": "address"
        },
        {
          "indexed": false,
          "internalType": "uint256",
          "name": "value",
          "type": "uint256"
        }
      ],
      "name": "Transfer",
      "type": "event"
    },
    {
      "inputs": [],
      "name": "BURNER_ROLE",
      "outputs": [
        {
          "internalType": "bytes32",
          "name": "",
          "type": "bytes32"
        }
      ],
      "stateMutability": "view",
      "type": "function"
    },
    {
      "inputs": [],
      "name": "DEFAULT_ADMIN_ROLE",
      "outputs": [
        {
          "internalType": "bytes32",
          "name": "",
          "type": "bytes32"
        }
      ],
      "stateMutability": "view",
      "type": "function"
    },
    {
      "inputs": [],
      "name": "MAX_SUPPLY",
      "outputs": [
        {
          "internalType": "uint256",
          "name": "",
          "type": "uint256"
        }
      ],
      "stateMutability": "view",
      "type": "function"
    },
    {
      "inputs": [],
      "name": "MINTER_ROLE",
      "outputs": [
        {
          "internalType": "bytes32",
          "name": "",
          "type": "bytes32"
        }
      ],
      "stateMutability": "view",
      "type": "function"
    },
    {
      "inputs": [
        {
          "internalType": "address",
          "name": "owner",
          "type": "address"
        },
        {
          "internalType": "address",
          "name": "spender",
          "type": "address"
        }
      ],
      "name": "allowance",
      "outputs": [
        {
          "internalType": "uint256",
          "name": "",
          "type": "uint256"
        }
      ],
      "stateMutability": "view",
      "type": "function"
    },
    {
      "inputs": [
        {
          "internalType": "address",
          "name": "spender",
          "type": "address"
        },
        {
          "internalType": "uint256",
          "name": "value",
          "type": "uint256"
        }
      ],
      "name": "approve",
      "outputs": [
        {
          "internalType": "bool",
          "name": "",
          "type": "bool"
        }
      ],
      "stateMutability": "nonpayable",
      "type": "function"
    },
    {
      "inputs": [
        {
          "internalType": "address",
          "name": "account",
          "type": "address"
        }
      ],
      "name": "balanceOf",
      "outputs": [
        {
          "internalType": "uint256",
          "name": "",
          "type": "uint256"
        }
      ],
      "stateMutability": "view",
      "type": "function"
    },
    {
      "inputs": [
        {
          "internalType": "uint256",
          "name": "amount",
          "type": "uint256"
        }
      ],
      "name": "burn",
      "outputs": [],
      "stateMutability": "nonpayable",
      "type": "function"
    },
    {
      "inputs": [
        {
          "internalType": "address",
          "name": "account",
          "type": "address"
        },
        {
          "internalType": "uint256",
          "name": "value",
          "type": "uint256"
        }
      ],
      "name": "burnFrom",
      "outputs": [],
      "stateMutability": "nonpayable",
      "type": "function"
    },
    {
      "inputs": [
        {
          "internalType": "address",
          "name": "from",
          "type": "address"
        },
        {
          "internalType": "uint256",
          "name": "amount",
          "type": "uint256"
        },
        {
          "internalType": "string",
          "name": "reason",
          "type": "string"
        }
      ],
      "name": "burnFromWithReason",
      "outputs": [],
      "stateMutability": "nonpayable",
      "type": "function"
    },
    {
      "inputs": [],
      "name": "decimals",
      "outputs": [
        {
          "internalType": "uint8",
          "name": "",
          "type": "uint8"
        }
      ],
      "stateMutability": "view",
      "type": "function"
    },
    {
      "inputs": [
        {
          "internalType": "bytes32",
          "name": "role",
          "type": "bytes32"
        }
      ],
      "name": "getRoleAdmin",
      "outputs": [
        {
          "internalType": "bytes32",
          "name": "",
          "type": "bytes32"
        }
      ],
      "stateMutability": "view",
      "type": "function"
    },
    {
      "inputs": [
        {
          "internalType": "bytes32",
          "name": "role",
          "type": "bytes32"
        },
        {
          "internalType": "address",
          "name": "account",
          "type": "address"
        }
      ],
      "name": "grantRole",
      "outputs": [],
      "stateMutability": "nonpayable",
      "type": "function"
    },
    {
      "inputs": [
        {
          "internalType": "bytes32",
          "name": "role",
          "type": "bytes32"
        },
        {
          "internalType": "address",
          "name": "account",
          "type": "address"
        }
      ],
      "name": "hasRole",
      "outputs": [
        {
          "internalType": "bool",
          "name": "",
          "type": "bool"
        }
      ],
      "stateMutability": "view",
      "type": "function"
    },
    {
      "inputs": [
        {
          "internalType": "address",
          "name": "to",
          "type": "address"
        },
        {
          "internalType": "uint256",
          "name": "amount",
          "type": "uint256"
        },
        {
          "internalType": "string",
          "name": "activityType",
          "type": "string"
        }
      ],
      "name": "mint",
      "outputs": [],
      "stateMutability": "nonpayable",
      "type": "function"
    },
    {
      "inputs": [],
      "name": "name",
      "outputs": [
        {
          "internalType": "string",
          "name": "",
          "type": "string"
        }
      ],
      "stateMutability": "view",
      "type": "function"
    },
    {
      "inputs": [
        {
          "internalType": "bytes32",
          "name": "role",
          "type": "bytes32"
        },
        {
          "internalType": "address",
          "name": "callerConfirmation",
          "type": "address"
        }
      ],
      "name": "renounceRole",
      "outputs": [],
      "stateMutability": "nonpayable",
      "type": "function"
    },
    {
      "inputs": [
        {
          "internalType": "bytes32",
          "name": "role",
          "type": "bytes32"
        },
        {
          "internalType": "address",
          "name": "account",
          "type": "address"
        }
      ],
      "name": "revokeRole",
      "outputs": [],
      "stateMutability": "nonpayable",
      "type": "function"
    },
    {
      "inputs": [
        {
          "internalType": "bytes4",
          "name": "interfaceId",
          "type": "bytes4"
        }
      ],
      "name": "supportsInterface",
      "outputs": [
        {
          "internalType": "bool",
          "name": "",
          "type": "bool"
        }
      ],
      "stateMutability": "view",
      "type": "function"
    },
    {
      "inputs": [],
      "name": "symbol",
      "outputs": [
        {
          "internalType": "string",
          "name": "",
          "type": "string"
        }
      ],
      "stateMutability": "view",
      "type": "function"
    },
    {
      "inputs": [],
      "name": "totalSupply",
      "outputs": [
        {
          "internalType": "uint256",
          "name": "",
          "type": "uint256"
        }
      ],
      "stateMutability": "view",
      "type": "function"
    },
    {
      "inputs": [
        {
          "internalType": "address",
          "name": "to",
          "type": "address"
        },
        {
          "internalType": "uint256",
          "name": "value",
          "type": "uint256"
        }
      ],
      "name": "transfer",
      "outputs": [
        {
          "internalType": "bool",
          "name": "",
          "type": "bool"
        }
      ],
      "stateMutability": "nonpayable",
      "type": "function"
    },
    {
      "inputs": [
        {
          "internalType": "address",
          "name": "from",
          "type": "address"
        },
        {
          "internalType": "address",
          "name": "to",
          "type": "address"
        },
        {
          "internalType": "uint256",
          "name": "value",
          "type": "uint256"
        }
      ],
      "name": "transferFrom",
      "outputs": [
        {
          "internalType": "bool",
          "name": "",
          "type": "bool"
        }
      ],
      "stateMutability": "nonpayable",
      "type": "function"
    }
  ],
  "bytecode": "0x60806040523480156200001157600080fd5b506040518060400160405280600e81526020016d2632b0b937243ab1102a37b5b2b760911b8152506040518060400160405280600381526020016213121560ea1b815250816003908162000066919062000240565b50600462000075828262000240565b506200008791506000905033620000e8565b50620000b47f9f2df0fed2c77648de5860a4cc508cd0818c85b8b8a1ab4ceeef8d981c8956a633620000e8565b50620000e17f3c11d16cbaffd01df69ce1c404f6340ee057498f5f00246190ea54220576a84833620000e8565b506200030c565b60008281526005602090815260408083206001600160a01b038516845290915281205460ff16620001915760008381526005602090815260408083206001600160a01b03861684529091529020805460ff19166001179055620001483390565b6001600160a01b0316826001600160a01b0316847f2f8788117e7eff1d82e926ec794901d17c78024a50270940304540a733656f0d60405160405180910390a450600162000195565b5060005b92915050565b634e487b7160e01b600052604160045260246000fd5b600181811c90821680620001c657607f821691505b602082108103620001e757634e487b7160e01b600052602260045260246000fd5b50919050565b601f8211156200023b57600081815260208120601f850160051c81016020861015620002165750805b601f850160051c820191505b81811015620002375782815560010162000222565b5050505b505050565b81516001600160401b038111156200025c576200025c6200019b565b62000274816200026d8454620001b1565b84620001ed565b602080601f831160018114620002ac5760008415620002935750858301515b600019600386901b1c1916600185901b17855562000237565b600085815260208120601f198616915b82811015620002dd57888601518255948401946001909101908401620002bc565b5085821015620002fc5787850151600019600388901b60f8161c191681555b5050505050600190811b01905550565b610f99806200031c6000396000f3fe608060405234801561001057600080fd5b506004361061014d5760003560e01c806342966c68116100c3578063a9059cbb1161007c578063a9059cbb146102cd578063d3fc9864146102e0578063d5391393146102f3578063d547741f1461031a578063d6b8de931461032d578063dd62ed3e1461034057600080fd5b806342966c681461025b57806370a082311461026e57806379cc67901461029757806391d14854146102aa57806395d89b41146102bd578063a217fddf146102c557600080fd5b8063248a9ca311610115578063248a9ca3146101c7578063282c51f3146101ea5780632f2ff15d14610211578063313ce5671461022657806332cb6b0c1461023557806336568abe1461024857600080fd5b806301ffc9a71461015257806306fdde031461017a578063095ea7b31461018f57806318160ddd146101a257806323b872dd146101b4575b600080fd5b610165610160366004610c70565b610379565b60405190151581526020015b60405180910390f35b6101826103b0565b6040516101719190610ce7565b61016561019d366004610d16565b610442565b6002545b604051908152602001610171565b6101656101c2366004610d40565b61045a565b6101a66101d5366004610d7c565b60009081526005602052604090206001015490565b6101a67f3c11d16cbaffd01df69ce1c404f6340ee057498f5f00246190ea54220576a84881565b61022461021f366004610d95565b61047e565b005b60405160128152602001610171565b6101a66b033b2e3c9fd0803ce800000081565b610224610256366004610d95565b6104a9565b610224610269366004610d7c565b6104e1565b6101a661027c366004610dc1565b6001600160a01b031660009081526020819052604090205490565b6102246102a5366004610d16565b610552565b6101656102b8366004610d95565b61056b565b610182610596565b6101a6600081565b6101656102db366004610d16565b6105a5565b6102246102ee366004610df2565b6105b3565b6101a67f9f2df0fed2c77648de5860a4cc508cd0818c85b8b8a1ab4ceeef8d981c8956a681565b610224610328366004610d95565b6106ef565b61022461033b366004610df2565b610714565b6101a661034e366004610ebd565b6001600160a01b03918216600090815260016020908152604080832093909416825291909152205490565b60006001600160e01b03198216637965db0b60e01b14806103aa57506301ffc9a760e01b6001600160e01b03198316145b92915050565b6060600380546103bf90610ee7565b80601f01602080910402602001604051908101604052809291908181526020018280546103eb90610ee7565b80156104385780601f1061040d57610100808354040283529160200191610438565b820191906000526020600020905b81548152906001019060200180831161041b57829003601f168201915b5050505050905090565b6000336104508185856107d9565b5060019392505050565b6000336104688582856107e6565b61047385858561085f565b506001949350505050565b600082815260056020526040902060010154610499816108be565b6104a383836108cb565b50505050565b6001600160a01b03811633146104d25760405163334bd91960e11b815260040160405180910390fd5b6104dc828261095f565b505050565b6104eb33826109cc565b336001600160a01b03167ffad31924d655455395c87544c8aa1ffdb5a7505a22a3c2e03f28003b6556a75f82604051610547918152604060208201819052600990820152682ab9b2b910313ab93760b91b606082015260800190565b60405180910390a250565b61055d8233836107e6565b61056782826109cc565b5050565b60009182526005602090815260408084206001600160a01b0393909316845291905290205460ff1690565b6060600480546103bf90610ee7565b60003361045081858561085f565b7f9f2df0fed2c77648de5860a4cc508cd0818c85b8b8a1ab4ceeef8d981c8956a66105dd816108be565b6001600160a01b0384166106385760405162461bcd60e51b815260206004820152601b60248201527f43616e6e6f74206d696e7420746f207a65726f2061646472657373000000000060448201526064015b60405180910390fd5b6b033b2e3c9fd0803ce80000008361064f60025490565b6106599190610f21565b111561069c5760405162461bcd60e51b815260206004820152601260248201527145786365656473206d617820737570706c7960701b604482015260640161062f565b6106a68484610a02565b836001600160a01b03167f9d89e36eadf856db0ad9ffb5a569e07f95634dddd9501141ecf04820484ad0dc84846040516106e1929190610f42565b60405180910390a250505050565b60008281526005602052604090206001015461070a816108be565b6104a3838361095f565b7f3c11d16cbaffd01df69ce1c404f6340ee057498f5f00246190ea54220576a84861073e816108be565b6001600160a01b0384166107945760405162461bcd60e51b815260206004820152601d60248201527f43616e6e6f74206275726e2066726f6d207a65726f2061646472657373000000604482015260640161062f565b61079e84846109cc565b836001600160a01b03167ffad31924d655455395c87544c8aa1ffdb5a7505a22a3c2e03f28003b6556a75f84846040516106e1929190610f42565b6104dc8383836001610a38565b6001600160a01b038381166000908152600160209081526040808320938616835292905220546000198110156104a3578181101561085057604051637dc7a0d960e11b81526001600160a01b0384166004820152602481018290526044810183905260640161062f565b6104a384848484036000610a38565b6001600160a01b03831661088957604051634b637e8f60e11b81526000600482015260240161062f565b6001600160a01b0382166108b35760405163ec442f0560e01b81526000600482015260240161062f565b6104dc838383610b0d565b6108c88133610c37565b50565b60006108d7838361056b565b6109575760008381526005602090815260408083206001600160a01b03861684529091529020805460ff1916600117905561090f3390565b6001600160a01b0316826001600160a01b0316847f2f8788117e7eff1d82e926ec794901d17c78024a50270940304540a733656f0d60405160405180910390a45060016103aa565b5060006103aa565b600061096b838361056b565b156109575760008381526005602090815260408083206001600160a01b0386168085529252808320805460ff1916905551339286917ff6391f5c32d9c69d2a47ea670b442974b53935d1edc7fd64eb21e047a839171b9190a45060016103aa565b6001600160a01b0382166109f657604051634b637e8f60e11b81526000600482015260240161062f565b61056782600083610b0d565b6001600160a01b038216610a2c5760405163ec442f0560e01b81526000600482015260240161062f565b61056760008383610b0d565b6001600160a01b038416610a625760405163e602df0560e01b81526000600482015260240161062f565b6001600160a01b038316610a8c57604051634a1406b160e11b81526000600482015260240161062f565b6001600160a01b03808516600090815260016020908152604080832093871683529290522082905580156104a357826001600160a01b0316846001600160a01b03167f8c5be1e5ebec7d5bd14f71427d1e84f3dd0314c0f7b2291e5b200ac8c7c3b92584604051610aff91815260200190565b60405180910390a350505050565b6001600160a01b038316610b38578060026000828254610b2d9190610f21565b90915550610baa9050565b6001600160a01b03831660009081526020819052604090205481811015610b8b5760405163391434e360e21b81526001600160a01b0385166004820152602481018290526044810183905260640161062f565b6001600160a01b03841660009081526020819052604090209082900390555b6001600160a01b038216610bc657600280548290039055610be5565b6001600160a01b03821660009081526020819052604090208054820190555b816001600160a01b0316836001600160a01b03167fddf252ad1be2c89b69c2b068fc378daa952ba7f163c4a11628f55a4df523b3ef83604051610c2a91815260200190565b60405180910390a3505050565b610c41828261056b565b6105675760405163e2517d3f60e01b81526001600160a01b03821660048201526024810183905260440161062f565b600060208284031215610c8257600080fd5b81356001600160e01b031981168114610c9a57600080fd5b9392505050565b6000815180845260005b81811015610cc757602081850181015186830182015201610cab565b506000602082860101526020601f19601f83011685010191505092915050565b602081526000610c9a6020830184610ca1565b80356001600160a01b0381168114610d1157600080fd5b919050565b60008060408385031215610d2957600080fd5b610d3283610cfa565b946020939093013593505050565b600080600060608486031215610d5557600080fd5b610d5e84610cfa565b9250610d6c60208501610cfa565b9150604084013590509250925092565b600060208284031215610d8e57600080fd5b5035919050565b60008060408385031215610da857600080fd5b82359150610db860208401610cfa565b90509250929050565b600060208284031215610dd357600080fd5b610c9a82610cfa565b634e487b7160e01b600052604160045260246000fd5b600080600060608486031215610e0757600080fd5b610e1084610cfa565b925060208401359150604084013567ffffffffffffffff80821115610e3457600080fd5b818601915086601f830112610e4857600080fd5b813581811115610e5a57610e5a610ddc565b604051601f8201601f19908116603f01168101908382118183101715610e8257610e82610ddc565b81604052828152896020848701011115610e9b57600080fd5b8260208601602083013760006020848301015280955050505050509250925092565b60008060408385031215610ed057600080fd5b610ed983610cfa565b9150610db860208401610cfa565b600181811c90821680610efb57607f821691505b602082108103610f1b57634e487b7160e01b600052602260045260246000fd5b50919050565b808201808211156103aa57634e487b7160e01b600052601160045260246000fd5b828152604060208201526000610f5b6040830184610ca1565b94935050505056fea264697066735822122028b939d490eacf56ac1b075e32353220cc8ccb0a2be346b52397a769c8bdf7dd64736f6c63430008140033",
  "linkReferences": {},
  "deployedLinkReferences": {}
}