{"contracts/LearnHubToken.sol":{"LearnHubToken":{"abi":[{"inputs":[],"stateMutability":"nonpayable","type":"constructor"},{"inputs":[],"name":"AccessControlBadConfirmation","type":"error"},{"inputs":[{"internalType":"address","name":"account","type":"address"},{"internalType":"bytes32","name":"neededRole","type":"bytes32"}],"name":"AccessControlUnauthorizedAccount","type":"error"},{"inputs":[{"internalType":"address","name":"spender","type":"address"},{"internalType":"uint256","name":"allowance","type":"uint256"},{"internalType":"uint256","name":"needed","type":"uint256"}],"name":"ERC20InsufficientAllowance","type":"error"},{"inputs":[{"internalType":"address","name":"sender","type":"address"},{"internalType":"uint256","name":"balance","type":"uint256"},{"internalType":"uint256","name":"needed","type":"uint256"}],"name":"ERC20InsufficientBalance","type":"error"},{"inputs":[{"internalType":"address","name":"approver","type":"address"}],"name":"ERC20InvalidApprover","type":"error"},{"inputs":[{"internalType":"address","name":"receiver","type":"address"}],"name":"ERC20InvalidReceiver","type":"error"},{"inputs":[{"internalType":"address","name":"sender","type":"address"}],"name":"ERC20InvalidSender","type":"error"},{"inputs":[{"internalType":"address","name":"spender","type":"address"}],"name":"ERC20InvalidSpender","type":"error"},{"anonymous":false,"inputs":[{"indexed":true,"internalType":"address","name":"owner","type":"address"},{"indexed":true,"internalType":"address","name":"spender","type":"address"},{"indexed":false,"internalType":"uint256","name":"value","type":"uint256"}],"name":"Approval","type":"event"},{"anonymous":false,"inputs":[{"indexed":true,"internalType":"bytes32","name":"role","type":"bytes32"},{"indexed":true,"internalType":"bytes32","name":"previousAdminRole","type":"bytes32"},{"indexed":true,"internalType":"bytes32","name":"newAdminRole","type":"bytes32"}],"name":"RoleAdminChanged","type":"event"},{"anonymous":false,"inputs":[{"indexed":true,"internalType":"bytes32","name":"role","type":"bytes32"},{"indexed":true,"internalType":"address","name":"account","type":"address"},{"indexed":true,"internalType":"address","name":"sender","type":"address"}],"name":"RoleGranted","type":"event"},{"anonymous":false,"inputs":[{"indexed":true,"internalType":"bytes32","name":"role","type":"bytes32"},{"indexed":true,"internalType":"address","name":"account","type":"address"},{"indexed":true,"internalType":"address","name":"sender","type":"address"}],"name":"RoleRevoked","type":"event"},{"anonymous":false,"inputs":[{"indexed":true,"internalType":"address","name":"from","type":"address"},{"indexed":false,"internalType":"uint256","name":"amount","type":"uint256"},{"indexed":false,"internalType":"string","name":"reason","type":"string"}],"name":"TokensBurned","type":"event"},{"anonymous":false,"inputs":[{"indexed":true,"internalType":"address","name":"to","type":"address"},{"indexed":false,"internalType":"uint256","name":"amount","type":"uint256"},{"indexed":false,"internalType":"string","name":"activityType","type":"string"}],"name":"TokensMinted","type":"event"},{"anonymous":false,"inputs":[{"indexed":true,"internalType":"address","name":"from","type":"address"},{"indexed":true,"internalType":"address","name":"to","type":"address"},{"indexed":false,"internalType":"uint256","name":"value","type":"uint256"}],"name":"Transfer","type":"event"},{"inputs":[],"name":"BURNER_ROLE","outputs":[{"internalType":"bytes32","name":"","type":"bytes32"}],"stateMutability":"view","type":"function"},{"inputs":[],"name":"DEFAULT_ADMIN_ROLE","outputs":[{"internalType":"bytes32","name":"","type":"bytes32"}],"stateMutability":"view","type":"function"},{"inputs":[],"name":"MAX_SUPPLY","outputs":[{"internalType":"uint256","name":"","type":"uint256"}],"stateMutability":"view","type":"function"},{"inputs":[],"name":"MINTER_ROLE","outputs":[{"internalType":"bytes32","name":"","type":"bytes32"}],"stateMutability":"view","type":"function"},{"inputs":[{"internalType":"address","name":"owner","type":"address"},{"internalType":"address","name":"spender","type":"address"}],"name":"allowance","outputs":[{"internalType":"uint256","name":"","type":"uint256"}],"stateMutability":"view","type":"function"},{"inputs":[{"internalType":"address","name":"spender","type":"address"},{"internalType":"uint256","name":"value","type":"uint256"}],"name":"approve","outputs":[{"internalType":"bool","name":"","type":"bool"}],"stateMutability":"nonpayable","type":"function"},{"inputs":[{"internalType":"address","name":"account","type":"address"}],"name":"balanceOf","outputs":[{"internalType":"uint256","name":"","type":"uint256"}],"stateMutability":"view","type":"function"},{"inputs":[{"internalType":"uint256","name":"amount","type":"uint256"}],"name":"burn","outputs":[],"stateMutability":"nonpayable","type":"function"},{"inputs":[{"internalType":"address","name":"account","type":"address"},{"internalType":"uint256","name":"value","type":"uint256"}],"name":"burnFrom","outputs":[],"stateMutability":"nonpayable","type":"function"},{"inputs":[{"internalType":"address","name":"from","type":"address"},{"internalType":"uint256","name":"amount","type":"uint256"},{"internalType":"string","name":"reason","type":"string"}],"name":"burnFromWithReason","outputs":[],"stateMutability":"nonpayable","type":"function"},{"inputs":[],"name":"decimals","outputs":[{"internalType":"uint8","name":"","type":"uint8"}],"stateMutability":"view","type":"function"},{"inputs":[{"internalType":"bytes32","name":"role","type":"bytes32"}],"name":"getRoleAdmin","outputs":[{"internalType":"bytes32","name":"","type":"bytes32"}],"stateMutability":"view","type":"function"},{"inputs":[{"internalType":"bytes32","name":"role","type":"bytes32"},{"internalType":"address","name":"account","type":"address"}],"name":"grantRole","outputs":[],"stateMutability":"nonpayable","type":"function"},{"inputs":[{"internalType":"bytes32","name":"role","type":"bytes32"},{"internalType":"address","name":"account","type":"address"}],"name":"hasRole","outputs":[{"internalType":"bool","name":"","type":"bool"}],"stateMutability":"view","type":"function"},{"inputs":[{"internalType":"address","name":"to","type":"address"},{"internalType":"uint256","name":"amount","type":"uint256"},{"internalType":"string","name":"activityType","type":"string"}],"name":"mint","outputs":[],"stateMutability":"nonpayable","type":"function"},{"inputs":[],"name":"name","outputs":[{"internalType":"string","name":"","type":"string"}],"stateMutability":"view","type":"function"},{"inputs":[{"internalType":"bytes32","name":"role","type":"bytes32"},{"internalType":"address","name":"callerConfirmation","type":"address"}],"name":"renounceRole","outputs":[],"stateMutability":"nonpayable","type":"function"},{"inputs":[{"internalType":"bytes32","name":"role","type":"bytes32"},{"internalType":"address","name":"account","type":"address"}],"name":"revokeRole","outputs":[],"stateMutability":"nonpayable","type":"function"},{"inputs":[{"internalType":"bytes4","name":"interfaceId","type":"bytes4"}],"name":"supportsInterface","outputs":[{"internalType":"bool","name":"","type":"bool"}],"stateMutability":"view","type":"function"},{"inputs":[],"name":"symbol","outputs":[{"internalType":"string","name":"","type":"string"}],"stateMutability":"view","type":"function"},{"inputs":[],"name":"totalSupply","outputs":[{"internalType":"uint256","name":"","type":"uint256"}],"stateMutability":"view","type":"function"},{"inputs":[{"internalType":"address","name":"to","type":"address"},{"internalType":"uint256","name":"value","type":"uint256"}],"name":"transfer","outputs":[{"internalType":"bool","name":"","type":"bool"}],"stateMutability":"nonpayable","type":"function"},{"inputs":[{"internalType":"address","name":"from","type":"address"},{"internalType":"address","name":"to","type":"address"},{"internalType":"uint256","name":"value","type":"uint256"}],"name":"transferFrom","outputs":[{"internalType":"bool","name":"","type":"bool"}],"stateMutability":"nonpayable","type":"function"}],"evm":{"bytecode":{"linkReferences":{},"object":"60806040523480156200001157600080fd5b506040518060400160405280600e81526020016d2632b0b937243ab1102a37b5b2b760911b8152506040518060400160405280600381526020016213121560ea1b815250816003908162000066919062000240565b50600462000075828262000240565b506200008791506000905033620000e8565b50620000b47f9f2df0fed2c77648de5860a4cc508cd0818c85b8b8a1ab4ceeef8d981c8956a633620000e8565b50620000e17f3c11d16cbaffd01df69ce1c404f6340ee057498f5f00246190ea54220576a84833620000e8565b506200030c565b60008281526005602090815260408083206001600160a01b038516845290915281205460ff16620001915760008381526005602090815260408083206001600160a01b03861684529091529020805460ff19166001179055620001483390565b6001600160a01b0316826001600160a01b0316847f2f8788117e7eff1d82e926ec794901d17c78024a50270940304540a733656f0d60405160405180910390a450600162000195565b5060005b92915050565b634e487b7160e01b600052604160045260246000fd5b600181811c90821680620001c657607f821691505b602082108103620001e757634e487b7160e01b600052602260045260246000fd5b50919050565b601f8211156200023b57600081815260208120601f850160051c81016020861015620002165750805b601f850160051c820191505b81811015620002375782815560010162000222565b5050505b505050565b81516001600160401b038111156200025c576200025c6200019b565b62000274816200026d8454620001b1565b84620001ed565b602080601f831160018114620002ac5760008415620002935750858301515b600019600386901b1c1916600185901b17855562000237565b600085815260208120601f198616915b82811015620002dd57888601518255948401946001909101908401620002bc565b5085821015620002fc5787850151600019600388901b60f8161c191681555b5050505050600190811b01905550565b610f99806200031c6000396000f3fe608060405234801561001057600080fd5b506004361061014d5760003560e01c806342966c68116100c3578063a9059cbb1161007c578063a9059cbb146102cd578063d3fc9864146102e0578063d5391393146102f3578063d547741f1461031a578063d6b8de931461032d578063dd62ed3e1461034057600080fd5b806342966c681461025b57806370a082311461026e57806379cc67901461029757806391d14854146102aa57806395d89b41146102bd578063a217fddf146102c557600080fd5b8063248a9ca311610115578063248a9ca3146101c7578063282c51f3146101ea5780632f2ff15d14610211578063313ce5671461022657806332cb6b0c1461023557806336568abe1461024857600080fd5b806301ffc9a71461015257806306fdde031461017a578063095ea7b31461018f57806318160ddd146101a257806323b872dd146101b4575b600080fd5b610165610160366004610c70565b610379565b60405190151581526020015b60405180910390f35b6101826103b0565b6040516101719190610ce7565b61016561019d366004610d16565b610442565b6002545b604051908152602001610171565b6101656101c2366004610d40565b61045a565b6101a66101d5366004610d7c565b60009081526005602052604090206001015490565b6101a67f3c11d16cbaffd01df69ce1c404f6340ee057498f5f00246190ea54220576a84881565b61022461021f366004610d95565b61047e565b005b60405160128152602001610171565b6101a66b033b2e3c9fd0803ce800000081565b610224610256366004610d95565b6104a9565b610224610269366004610d7c565b6104e1565b6101a661027c366004610dc1565b6001600160a01b031660009081526020819052604090205490565b6102246102a5366004610d16565b610552565b6101656102b8366004610d95565b61056b565b610182610596565b6101a6600081565b6101656102db366004610d16565b6105a5565b6102246102ee366004610df2565b6105b3565b6101a67f9f2df0fed2c77648de5860a4cc508cd0818c85b8b8a1ab4ceeef8d981c8956a681565b610224610328366004610d95565b6106ef565b61022461033b366004610df2565b610714565b6101a661034e366004610ebd565b6001600160a01b03918216600090815260016020908152604080832093909416825291909152205490565b60006001600160e01b03198216637965db0b60e01b14806103aa57506301ffc9a760e01b6001600160e01b03198316145b92915050565b6060600380546103bf90610ee7565b80601f01602080910402602001604051908101604052809291908181526020018280546103eb90610ee7565b80156104385780601f1061040d57610100808354040283529160200191610438565b820191906000526020600020905b81548152906001019060200180831161041b57829003601f168201915b5050505050905090565b6000336104508185856107d9565b5060019392505050565b6000336104688582856107e6565b61047385858561085f565b506001949350505050565b600082815260056020526040902060010154610499816108be565b6104a383836108cb565b50505050565b6001600160a01b03811633146104d25760405163334bd91960e11b815260040160405180910390fd5b6104dc828261095f565b505050565b6104eb33826109cc565b336001600160a01b03167ffad31924d655455395c87544c8aa1ffdb5a7505a22a3c2e03f28003b6556a75f82604051610547918152604060208201819052600990820152682ab9b2b910313ab93760b91b606082015260800190565b60405180910390a250565b61055d8233836107e6565b61056782826109cc565b5050565b60009182526005602090815260408084206001600160a01b0393909316845291905290205460ff1690565b6060600480546103bf90610ee7565b60003361045081858561085f565b7f9f2df0fed2c77648de5860a4cc508cd0818c85b8b8a1ab4ceeef8d981c8956a66105dd816108be565b6001600160a01b0384166106385760405162461bcd60e51b815260206004820152601b60248201527f43616e6e6f74206d696e7420746f207a65726f2061646472657373000000000060448201526064015b60405180910390fd5b6b033b2e3c9fd0803ce80000008361064f60025490565b6106599190610f21565b111561069c5760405162461bcd60e51b815260206004820152601260248201527145786365656473206d617820737570706c7960701b604482015260640161062f565b6106a68484610a02565b836001600160a01b03167f9d89e36eadf856db0ad9ffb5a569e07f95634dddd9501141ecf04820484ad0dc84846040516106e1929190610f42565b60405180910390a250505050565b60008281526005602052604090206001015461070a816108be565b6104a3838361095f565b7f3c11d16cbaffd01df69ce1c404f6340ee057498f5f00246190ea54220576a84861073e816108be565b6001600160a01b0384166107945760405162461bcd60e51b815260206004820152601d60248201527f43616e6e6f74206275726e2066726f6d207a65726f2061646472657373000000604482015260640161062f565b61079e84846109cc565b836001600160a01b03167ffad31924d655455395c87544c8aa1ffdb5a7505a22a3c2e03f28003b6556a75f84846040516106e1929190610f42565b6104dc8383836001610a38565b6001600160a01b038381166000908152600160209081526040808320938616835292905220546000198110156104a3578181101561085057604051637dc7a0d960e11b81526001600160a01b0384166004820152602481018290526044810183905260640161062f565b6104a384848484036000610a38565b6001600160a01b03831661088957604051634b637e8f60e11b81526000600482015260240161062f565b6001600160a01b0382166108b35760405163ec442f0560e01b81526000600482015260240161062f565b6104dc838383610b0d565b6108c88133610c37565b50565b60006108d7838361056b565b6109575760008381526005602090815260408083206001600160a01b03861684529091529020805460ff1916600117905561090f3390565b6001600160a01b0316826001600160a01b0316847f2f8788117e7eff1d82e926ec794901d17c78024a50270940304540a733656f0d60405160405180910390a45060016103aa565b5060006103aa565b600061096b838361056b565b156109575760008381526005602090815260408083206001600160a01b0386168085529252808320805460ff1916905551339286917ff6391f5c32d9c69d2a47ea670b442974b53935d1edc7fd64eb21e047a839171b9190a45060016103aa565b6001600160a01b0382166109f657604051634b637e8f60e11b81526000600482015260240161062f565b61056782600083610b0d565b6001600160a01b038216610a2c5760405163ec442f0560e01b81526000600482015260240161062f565b61056760008383610b0d565b6001600160a01b038416610a625760405163e602df0560e01b81526000600482015260240161062f565b6001600160a01b038316610a8c57604051634a1406b160e11b81526000600482015260240161062f565b6001600160a01b03808516600090815260016020908152604080832093871683529290522082905580156104a357826001600160a01b0316846001600160a01b03167f8c5be1e5ebec7d5bd14f71427d1e84f3dd0314c0f7b2291e5b200ac8c7c3b92584604051610aff91815260200190565b60405180910390a350505050565b6001600160a01b038316610b38578060026000828254610b2d9190610f21565b90915550610baa9050565b6001600160a01b03831660009081526020819052604090205481811015610b8b5760405163391434e360e21b81526001600160a01b0385166004820152602481018290526044810183905260640161062f565b6001600160a01b03841660009081526020819052604090209082900390555b6001600160a01b038216610bc657600280548290039055610be5565b6001600160a01b03821660009081526020819052604090208054820190555b816001600160a01b0316836001600160a01b03167fddf252ad1be2c89b69c2b068fc378daa952ba7f163c4a11628f55a4df523b3ef83604051610c2a91815260200190565b60405180910390a3505050565b610c41828261056b565b6105675760405163e2517d3f60e01b81526001600160a01b03821660048201526024810183905260440161062f565b600060208284031215610c8257600080fd5b81356001600160e01b031981168114610c9a57600080fd5b9392505050565b6000815180845260005b81811015610cc757602081850181015186830182015201610cab565b506000602082860101526020601f19601f83011685010191505092915050565b602081526000610c9a6020830184610ca1565b80356001600160a01b0381168114610d1157600080fd5b919050565b60008060408385031215610d2957600080fd5b610d3283610cfa565b946020939093013593505050565b600080600060608486031215610d5557600080fd5b610d5e84610cfa565b9250610d6c60208501610cfa565b9150604084013590509250925092565b600060208284031215610d8e57600080fd5b5035919050565b60008060408385031215610da857600080fd5b82359150610db860208401610cfa565b90509250929050565b600060208284031215610dd357600080fd5b610c9a82610cfa565b634e487b7160e01b600052604160045260246000fd5b600080600060608486031215610e0757600080fd5b610e1084610cfa565b925060208401359150604084013567ffffffffffffffff80821115610e3457600080fd5b818601915086601f830112610e4857600080fd5b813581811115610e5a57610e5a610ddc565b604051601f8201601f19908116603f01168101908382118183101715610e8257610e82610ddc565b81604052828152896020848701011115610e9b57600080fd5b8260208601602083013760006020848301015280955050505050509250925092565b60008060408385031215610ed057600080fd5b610ed983610cfa565b9150610db860208401610cfa565b600181811c90821680610efb57607f821691505b602082108103610f1b57634e487b7160e01b600052602260045260246000fd5b50919050565b808201808211156103aa57634e487b7160e01b600052601160045260246000fd5b828152604060208201526000610f5b6040830184610ca1565b94935050505056fea264697066735822122028b939d490eacf56ac1b075e32353220cc8ccb0a2be346b52397a769c8bdf7dd64736f6c63430008140033","opcodes":"PUSH1 0x80 PUSH1 0x40 MSTORE CALLVALUE DUP1 ISZERO PUSH3 0x11 JUMPI PUSH1 0x0 DUP1 REVERT JUMPDEST POP PUSH1 0x40 MLOAD DUP1 PUSH1 0x40 ADD PUSH1 0x40 MSTORE DUP1 PUSH1 0xE DUP2 MSTORE PUSH1 0x20 ADD PUSH14 0x2632B0B937243AB1102A37B5B2B7 PUSH1 0x91 SHL DUP2 MSTORE POP PUSH1 0x40 MLOAD DUP1 PUSH1 0x40 ADD PUSH1 0x40 MSTORE DUP1 PUSH1 0x3 DUP2 MSTORE PUSH1 0x20 ADD PUSH3 0x131215 PUSH1 0xEA SHL DUP2 MSTORE POP DUP2 PUSH1 0x3 SWAP1 DUP2 PUSH3 0x66 SWAP2 SWAP1 PUSH3 0x240 JUMP JUMPDEST POP PUSH1 0x4 PUSH3 0x75 DUP3 DUP3 PUSH3 0x240 JUMP JUMPDEST POP PUSH3 0x87 SWAP2 POP PUSH1 0x0 SWAP1 POP CALLER PUSH3 0xE8 JUMP JUMPDEST POP PUSH3 0xB4 PUSH32 0x9F2DF0FED2C77648DE5860A4CC508CD0818C85B8B8A1AB4CEEEF8D981C8956A6 CALLER PUSH3 0xE8 JUMP JUMPDEST POP PUSH3 0xE1 PUSH32 0x3C11D16CBAFFD01DF69CE1C404F6340EE057498F5F00246190EA54220576A848 CALLER PUSH3 0xE8 JUMP JUMPDEST POP PUSH3 0x30C JUMP JUMPDEST PUSH1 0x0 DUP3 DUP2 MSTORE PUSH1 0x5 PUSH1 0x20 SWAP1 DUP2 MSTORE PUSH1 0x40 DUP1 DUP4 KECCAK256 PUSH1 0x1 PUSH1 0x1 PUSH1 0xA0 SHL SUB DUP6 AND DUP5 MSTORE SWAP1 SWAP2 MSTORE DUP2 KECCAK256 SLOAD PUSH1 0xFF AND PUSH3 0x191 JUMPI PUSH1 0x0 DUP4 DUP2 MSTORE PUSH1 0x5 PUSH1 0x20 SWAP1 DUP2 MSTORE PUSH1 0x40 DUP1 DUP4 KECCAK256 PUSH1 0x1 PUSH1 0x1 PUSH1 0xA0 SHL SUB DUP7 AND DUP5 MSTORE SWAP1 SWAP2 MSTORE SWAP1 KECCAK256 DUP1 SLOAD PUSH1 0xFF NOT AND PUSH1 0x1 OR SWAP1 SSTORE PUSH3 0x148 CALLER SWAP1 JUMP JUMPDEST PUSH1 0x1 PUSH1 0x1 PUSH1 0xA0 SHL SUB AND DUP3 PUSH1 0x1 PUSH1 0x1 PUSH1 0xA0 SHL SUB AND DUP5 PUSH32 0x2F8788117E7EFF1D82E926EC794901D17C78024A50270940304540A733656F0D PUSH1 0x40 MLOAD PUSH1 0x40 MLOAD DUP1 SWAP2 SUB SWAP1 LOG4 POP PUSH1 0x1 PUSH3 0x195 JUMP JUMPDEST POP PUSH1 0x0 JUMPDEST SWAP3 SWAP2 POP POP JUMP JUMPDEST PUSH4 0x4E487B71 PUSH1 0xE0 SHL PUSH1 0x0 MSTORE PUSH1 0x41 PUSH1 0x4 MSTORE PUSH1 0x24 PUSH1 0x0 REVERT JUMPDEST PUSH1 0x1 DUP2 DUP2 SHR SWAP1 DUP3 AND DUP1 PUSH3 0x1C6 JUMPI PUSH1 0x7F DUP3 AND SWAP2 POP JUMPDEST PUSH1 0x20 DUP3 LT DUP2 SUB PUSH3 0x1E7 JUMPI PUSH4 0x4E487B71 PUSH1 0xE0 SHL PUSH1 0x0 MSTORE PUSH1 0x22 PUSH1 0x4 MSTORE PUSH1 0x24 PUSH1 0x0 REVERT JUMPDEST POP SWAP2 SWAP1 POP JUMP JUMPDEST PUSH1 0x1F DUP3 GT ISZERO PUSH3 0x23B JUMPI PUSH1 0x0 DUP2 DUP2 MSTORE PUSH1 0x20 DUP2 KECCAK256 PUSH1 0x1F DUP6 ADD PUSH1 0x5 SHR DUP2 ADD PUSH1 0x20 DUP7 LT ISZERO PUSH3 0x216 JUMPI POP DUP1 JUMPDEST PUSH1 0x1F DUP6 ADD PUSH1 0x5 SHR DUP3 ADD SWAP2 POP JUMPDEST DUP2 DUP2 LT ISZERO PUSH3 0x237 JUMPI DUP3 DUP2 SSTORE PUSH1 0x1 ADD PUSH3 0x222 JUMP JUMPDEST POP POP POP JUMPDEST POP POP POP JUMP JUMPDEST DUP2 MLOAD PUSH1 0x1 PUSH1 0x1 PUSH1 0x40 SHL SUB DUP2 GT ISZERO PUSH3 0x25C JUMPI PUSH3 0x25C PUSH3 0x19B JUMP JUMPDEST PUSH3 0x274 DUP2 PUSH3 0x26D DUP5 SLOAD PUSH3 0x1B1 JUMP JUMPDEST DUP5 PUSH3 0x1ED JUMP JUMPDEST PUSH1 0x20 DUP1 PUSH1 0x1F DUP4 GT PUSH1 0x1 DUP2 EQ PUSH3 0x2AC JUMPI PUSH1 0x0 DUP5 ISZERO PUSH3 0x293 JUMPI POP DUP6 DUP4 ADD MLOAD JUMPDEST PUSH1 0x0 NOT PUSH1 0x3 DUP7 SWAP1 SHL SHR NOT AND PUSH1 0x1 DUP6 SWAP1 SHL OR DUP6 SSTORE PUSH3 0x237 JUMP JUMPDEST PUSH1 0x0 DUP6 DUP2 MSTORE PUSH1 0x20 DUP2 KECCAK256 PUSH1 0x1F NOT DUP7 AND SWAP2 JUMPDEST DUP3 DUP2 LT ISZERO PUSH3 0x2DD JUMPI DUP9 DUP7 ADD MLOAD DUP3 SSTORE SWAP5 DUP5 ADD SWAP5 PUSH1 0x1 SWAP1 SWAP2 ADD SWAP1 DUP5 ADD PUSH3 0x2BC JUMP JUMPDEST POP DUP6 DUP3 LT ISZERO PUSH3 0x2FC JUMPI DUP8 DUP6 ADD MLOAD PUSH1 0x0 NOT PUSH1 0x3 DUP9 SWAP1 SHL PUSH1 0xF8 AND SHR NOT AND DUP2 SSTORE JUMPDEST POP POP POP POP POP PUSH1 0x1 SWAP1 DUP2 SHL ADD SWAP1 SSTORE POP JUMP JUMPDEST PUSH2 0xF99 DUP1 PUSH3 0x31C PUSH1 0x0 CODECOPY PUSH1 0x0 RETURN INVALID PUSH1 0x80 PUSH1 0x40 MSTORE CALLVALUE DUP1 ISZERO PUSH2 0x10 JUMPI PUSH1 0x0 DUP1 REVERT JUMPDEST POP PUSH1 0x4 CALLDATASIZE LT PUSH2 0x14D JUMPI PUSH1 0x0 CALLDATALOAD PUSH1 0xE0 SHR DUP1 PUSH4 0x42966C68 GT PUSH2 0xC3 JUMPI DUP1 PUSH4 0xA9059CBB GT PUSH2 0x7C JUMPI DUP1 PUSH4 0xA9059CBB EQ PUSH2 0x2CD JUMPI DUP1 PUSH4 0xD3FC9864 EQ PUSH2 0x2E0 JUMPI DUP1 PUSH4 0xD5391393 EQ PUSH2 0x2F3 JUMPI DUP1 PUSH4 0xD547741F EQ PUSH2 0x31A JUMPI DUP1 PUSH4 0xD6B8DE93 EQ PUSH2 0x32D JUMPI DUP1 PUSH4 0xDD62ED3E EQ PUSH2 0x340 JUMPI PUSH1 0x0 DUP1 REVERT JUMPDEST DUP1 PUSH4 0x42966C68 EQ PUSH2 0x25B JUMPI DUP1 PUSH4 0x70A08231 EQ PUSH2 0x26E JUMPI DUP1 PUSH4 0x79CC6790 EQ PUSH2 0x297 JUMPI DUP1 PUSH4 0x91D14854 EQ PUSH2 0x2AA JUMPI DUP1 PUSH4 0x95D89B41 EQ PUSH2 0x2BD JUMPI DUP1 PUSH4 0xA217FDDF EQ PUSH2 0x2C5 JUMPI PUSH1 0x0 DUP1 REVERT JUMPDEST DUP1 PUSH4 0x248A9CA3 GT PUSH2 0x115 JUMPI DUP1 PUSH4 0x248A9CA3 EQ PUSH2 0x1C7 JUMPI DUP1 PUSH4 0x282C51F3 EQ PUSH2 0x1EA JUMPI DUP1 PUSH4 0x2F2FF15D EQ PUSH2 0x211 JUMPI DUP1 PUSH4 0x313CE567 EQ PUSH2 0x226 JUMPI DUP1 PUSH4 0x32CB6B0C EQ PUSH2 0x235 JUMPI DUP1 PUSH4 0x36568ABE EQ PUSH2 0x248 JUMPI PUSH1 0x0 DUP1 REVERT JUMPDEST DUP1 PUSH4 0x1FFC9A7 EQ PUSH2 0x152 JUMPI DUP1 PUSH4 0x6FDDE03 EQ PUSH2 0x17A JUMPI DUP1 PUSH4 0x95EA7B3 EQ PUSH2 0x18F JUMPI DUP1 PUSH4 0x18160DDD EQ PUSH2 0x1A2 JUMPI DUP1 PUSH4 0x23B872DD EQ PUSH2 0x1B4 JUMPI JUMPDEST PUSH1 0x0 DUP1 REVERT JUMPDEST PUSH2 0x165 PUSH2 0x160 CALLDATASIZE PUSH1 0x4 PUSH2 0xC70 JUMP JUMPDEST PUSH2 0x379 JUMP JUMPDEST PUSH1 0x40 MLOAD SWAP1 ISZERO ISZERO DUP2 MSTORE PUSH1 0x20 ADD JUMPDEST PUSH1 0x40 MLOAD DUP1 SWAP2 SUB SWAP1 RETURN JUMPDEST PUSH2 0x182 PUSH2 0x3B0 JUMP JUMPDEST PUSH1 0x40 MLOAD PUSH2 0x171 SWAP2 SWAP1 PUSH2 0xCE7 JUMP JUMPDEST PUSH2 0x165 PUSH2 0x19D CALLDATASIZE PUSH1 0x4 PUSH2 0xD16 JUMP JUMPDEST PUSH2 0x442 JUMP JUMPDEST PUSH1 0x2 SLOAD JUMPDEST PUSH1 0x40 MLOAD SWAP1 DUP2 MSTORE PUSH1 0x20 ADD PUSH2 0x171 JUMP JUMPDEST PUSH2 0x165 PUSH2 0x1C2 CALLDATASIZE PUSH1 0x4 PUSH2 0xD40 JUMP JUMPDEST PUSH2 0x45A JUMP JUMPDEST PUSH2 0x1A6 PUSH2 0x1D5 CALLDATASIZE PUSH1 0x4 PUSH2 0xD7C JUMP JUMPDEST PUSH1 0x0 SWAP1 DUP2 MSTORE PUSH1 0x5 PUSH1 0x20 MSTORE PUSH1 0x40 SWAP1 KECCAK256 PUSH1 0x1 ADD SLOAD SWAP1 JUMP JUMPDEST PUSH2 0x1A6 PUSH32 0x3C11D16CBAFFD01DF69CE1C404F6340EE057498F5F00246190EA54220576A848 DUP2 JUMP JUMPDEST PUSH2 0x224 PUSH2 0x21F CALLDATASIZE PUSH1 0x4 PUSH2 0xD95 JUMP JUMPDEST PUSH2 0x47E JUMP JUMPDEST STOP JUMPDEST PUSH1 0x40 MLOAD PUSH1 0x12 DUP2 MSTORE PUSH1 0x20 ADD PUSH2 0x171 JUMP JUMPDEST PUSH2 0x1A6 PUSH12 0x33B2E3C9FD0803CE8000000 DUP2 JUMP JUMPDEST PUSH2 0x224 PUSH2 0x256 CALLDATASIZE PUSH1 0x4 PUSH2 0xD95 JUMP JUMPDEST PUSH2 0x4A9 JUMP JUMPDEST PUSH2 0x224 PUSH2 0x269 CALLDATASIZE PUSH1 0x4 PUSH2 0xD7C JUMP JUMPDEST PUSH2 0x4E1 JUMP JUMPDEST PUSH2 0x1A6 PUSH2 0x27C CALLDATASIZE PUSH1 0x4 PUSH2 0xDC1 JUMP JUMPDEST PUSH1 0x1 PUSH1 0x1 PUSH1 0xA0 SHL SUB AND PUSH1 0x0 SWAP1 DUP2 MSTORE PUSH1 0x20 DUP2 SWAP1 MSTORE PUSH1 0x40 SWAP1 KECCAK256 SLOAD SWAP1 JUMP JUMPDEST PUSH2 0x224 PUSH2 0x2A5 CALLDATASIZE PUSH1 0x4 PUSH2 0xD16 JUMP JUMPDEST PUSH2 0x552 JUMP JUMPDEST PUSH2 0x165 PUSH2 0x2B8 CALLDATASIZE PUSH1 0x4 PUSH2 0xD95 JUMP JUMPDEST PUSH2 0x56B JUMP JUMPDEST PUSH2 0x182 PUSH2 0x596 JUMP JUMPDEST PUSH2 0x1A6 PUSH1 0x0 DUP2 JUMP JUMPDEST PUSH2 0x165 PUSH2 0x2DB CALLDATASIZE PUSH1 0x4 PUSH2 0xD16 JUMP JUMPDEST PUSH2 0x5A5 JUMP JUMPDEST PUSH2 0x224 PUSH2 0x2EE CALLDATASIZE PUSH1 0x4 PUSH2 0xDF2 JUMP JUMPDEST PUSH2 0x5B3 JUMP JUMPDEST PUSH2 0x1A6 PUSH32 0x9F2DF0FED2C77648DE5860A4CC508CD0818C85B8B8A1AB4CEEEF8D981C8956A6 DUP2 JUMP JUMPDEST PUSH2 0x224 PUSH2 0x328 CALLDATASIZE PUSH1 0x4 PUSH2 0xD95 JUMP JUMPDEST PUSH2 0x6EF JUMP JUMPDEST PUSH2 0x224 PUSH2 0x33B CALLDATASIZE PUSH1 0x4 PUSH2 0xDF2 JUMP JUMPDEST PUSH2 0x714 JUMP JUMPDEST PUSH2 0x1A6 PUSH2 0x34E CALLDATASIZE PUSH1 0x4 PUSH2 0xEBD JUMP JUMPDEST PUSH1 0x1 PUSH1 0x1 PUSH1 0xA0 SHL SUB SWAP2 DUP3 AND PUSH1 0x0 SWAP1 DUP2 MSTORE PUSH1 0x1 PUSH1 0x20 SWAP1 DUP2 MSTORE PUSH1 0x40 DUP1 DUP4 KECCAK256 SWAP4 SWAP1 SWAP5 AND DUP3 MSTORE SWAP2 SWAP1 SWAP2 MSTORE KECCAK256 SLOAD SWAP1 JUMP JUMPDEST PUSH1 0x0 PUSH1 0x1 PUSH1 0x1 PUSH1 0xE0 SHL SUB NOT DUP3 AND PUSH4 0x7965DB0B PUSH1 0xE0 SHL EQ DUP1 PUSH2 0x3AA JUMPI POP PUSH4 0x1FFC9A7 PUSH1 0xE0 SHL PUSH1 0x1 PUSH1 0x1 PUSH1 0xE0 SHL SUB NOT DUP4 AND EQ JUMPDEST SWAP3 SWAP2 POP POP JUMP JUMPDEST PUSH1 0x60 PUSH1 0x3 DUP1 SLOAD PUSH2 0x3BF SWAP1 PUSH2 0xEE7 JUMP JUMPDEST DUP1 PUSH1 0x1F ADD PUSH1 0x20 DUP1 SWAP2 DIV MUL PUSH1 0x20 ADD PUSH1 0x40 MLOAD SWAP1 DUP2 ADD PUSH1 0x40 MSTORE DUP1 SWAP3 SWAP2 SWAP1 DUP2 DUP2 MSTORE PUSH1 0x20 ADD DUP3 DUP1 SLOAD PUSH2 0x3EB SWAP1 PUSH2 0xEE7 JUMP JUMPDEST DUP1 ISZERO PUSH2 0x438 JUMPI DUP1 PUSH1 0x1F LT PUSH2 0x40D JUMPI PUSH2 0x100 DUP1 DUP4 SLOAD DIV MUL DUP4 MSTORE SWAP2 PUSH1 0x20 ADD SWAP2 PUSH2 0x438 JUMP JUMPDEST DUP3 ADD SWAP2 SWAP1 PUSH1 0x0 MSTORE PUSH1 0x20 PUSH1 0x0 KECCAK256 SWAP1 JUMPDEST DUP2 SLOAD DUP2 MSTORE SWAP1 PUSH1 0x1 ADD SWAP1 PUSH1 0x20 ADD DUP1 DUP4 GT PUSH2 0x41B JUMPI DUP3 SWAP1 SUB PUSH1 0x1F AND DUP3 ADD SWAP2 JUMPDEST POP POP POP POP POP SWAP1 POP SWAP1 JUMP JUMPDEST PUSH1 0x0 CALLER PUSH2 0x450 DUP2 DUP6 DUP6 PUSH2 0x7D9 JUMP JUMPDEST POP PUSH1 0x1 SWAP4 SWAP3 POP POP POP JUMP JUMPDEST PUSH1 0x0 CALLER PUSH2 0x468 DUP6 DUP3 DUP6 PUSH2 0x7E6 JUMP JUMPDEST PUSH2 0x473 DUP6 DUP6 DUP6 PUSH2 0x85F JUMP JUMPDEST POP PUSH1 0x1 SWAP5 SWAP4 POP POP POP POP JUMP JUMPDEST PUSH1 0x0 DUP3 DUP2 MSTORE PUSH1 0x5 PUSH1 0x20 MSTORE PUSH1 0x40 SWAP1 KECCAK256 PUSH1 0x1 ADD SLOAD PUSH2 0x499 DUP2 PUSH2 0x8BE JUMP JUMPDEST PUSH2 0x4A3 DUP4 DUP4 PUSH2 0x8CB JUMP JUMPDEST POP POP POP POP JUMP JUMPDEST PUSH1 0x1 PUSH1 0x1 PUSH1 0xA0 SHL SUB DUP2 AND CALLER EQ PUSH2 0x4D2 JUMPI PUSH1 0x40 MLOAD PUSH4 0x334BD919 PUSH1 0xE1 SHL DUP2 MSTORE PUSH1 0x4 ADD PUSH1 0x40 MLOAD DUP1 SWAP2 SUB SWAP1 REVERT JUMPDEST PUSH2 0x4DC DUP3 DUP3 PUSH2 0x95F JUMP JUMPDEST POP POP POP JUMP JUMPDEST PUSH2 0x4EB CALLER DUP3 PUSH2 0x9CC JUMP JUMPDEST CALLER PUSH1 0x1 PUSH1 0x1 PUSH1 0xA0 SHL SUB AND PUSH32 0xFAD31924D655455395C87544C8AA1FFDB5A7505A22A3C2E03F28003B6556A75F DUP3 PUSH1 0x40 MLOAD PUSH2 0x547 SWAP2 DUP2 MSTORE PUSH1 0x40 PUSH1 0x20 DUP3 ADD DUP2 SWAP1 MSTORE PUSH1 0x9 SWAP1 DUP3 ADD MSTORE PUSH9 0x2AB9B2B910313AB937 PUSH1 0xB9 SHL PUSH1 0x60 DUP3 ADD MSTORE PUSH1 0x80 ADD SWAP1 JUMP JUMPDEST PUSH1 0x40 MLOAD DUP1 SWAP2 SUB SWAP1 LOG2 POP JUMP JUMPDEST PUSH2 0x55D DUP3 CALLER DUP4 PUSH2 0x7E6 JUMP JUMPDEST PUSH2 0x567 DUP3 DUP3 PUSH2 0x9CC JUMP JUMPDEST POP POP JUMP JUMPDEST PUSH1 0x0 SWAP2 DUP3 MSTORE PUSH1 0x5 PUSH1 0x20 SWAP1 DUP2 MSTORE PUSH1 0x40 DUP1 DUP5 KECCAK256 PUSH1 0x1 PUSH1 0x1 PUSH1 0xA0 SHL SUB SWAP4 SWAP1 SWAP4 AND DUP5 MSTORE SWAP2 SWAP1 MSTORE SWAP1 KECCAK256 SLOAD PUSH1 0xFF AND SWAP1 JUMP JUMPDEST PUSH1 0x60 PUSH1 0x4 DUP1 SLOAD PUSH2 0x3BF SWAP1 PUSH2 0xEE7 JUMP JUMPDEST PUSH1 0x0 CALLER PUSH2 0x450 DUP2 DUP6 DUP6 PUSH2 0x85F JUMP JUMPDEST PUSH32 0x9F2DF0FED2C77648DE5860A4CC508CD0818C85B8B8A1AB4CEEEF8D981C8956A6 PUSH2 0x5DD DUP2 PUSH2 0x8BE JUMP JUMPDEST PUSH1 0x1 PUSH1 0x1 PUSH1 0xA0 SHL SUB DUP5 AND PUSH2 0x638 JUMPI PUSH1 0x40 MLOAD PUSH3 0x461BCD PUSH1 0xE5 SHL DUP2 MSTORE PUSH1 0x20 PUSH1 0x4 DUP3 ADD MSTORE PUSH1 0x1B PUSH1 0x24 DUP3 ADD MSTORE PUSH32 0x43616E6E6F74206D696E7420746F207A65726F20616464726573730000000000 PUSH1 0x44 DUP3 ADD MSTORE PUSH1 0x64 ADD JUMPDEST PUSH1 0x40 MLOAD DUP1 SWAP2 SUB SWAP1 REVERT JUMPDEST PUSH12 0x33B2E3C9FD0803CE8000000 DUP4 PUSH2 0x64F PUSH1 0x2 SLOAD SWAP1 JUMP JUMPDEST PUSH2 0x659 SWAP2 SWAP1 PUSH2 0xF21 JUMP JUMPDEST GT ISZERO PUSH2 0x69C JUMPI PUSH1 0x40 MLOAD PUSH3 0x461BCD PUSH1 0xE5 SHL DUP2 MSTORE PUSH1 0x20 PUSH1 0x4 DUP3 ADD MSTORE PUSH1 0x12 PUSH1 0x24 DUP3 ADD MSTORE PUSH18 0x45786365656473206D617820737570706C79 PUSH1 0x70 SHL PUSH1 0x44 DUP3 ADD MSTORE PUSH1 0x64 ADD PUSH2 0x62F JUMP JUMPDEST PUSH2 0x6A6 DUP5 DUP5 PUSH2 0xA02 JUMP JUMPDEST DUP4 PUSH1 0x1 PUSH1 0x1 PUSH1 0xA0 SHL SUB AND PUSH32 0x9D89E36EADF856DB0AD9FFB5A569E07F95634DDDD9501141ECF04820484AD0DC DUP5 DUP5 PUSH1 0x40 MLOAD PUSH2 0x6E1 SWAP3 SWAP2 SWAP1 PUSH2 0xF42 JUMP JUMPDEST PUSH1 0x40 MLOAD DUP1 SWAP2 SUB SWAP1 LOG2 POP POP POP POP JUMP JUMPDEST PUSH1 0x0 DUP3 DUP2 MSTORE PUSH1 0x5 PUSH1 0x20 MSTORE PUSH1 0x40 SWAP1 KECCAK256 PUSH1 0x1 ADD SLOAD PUSH2 0x70A DUP2 PUSH2 0x8BE JUMP JUMPDEST PUSH2 0x4A3 DUP4 DUP4 PUSH2 0x95F JUMP JUMPDEST PUSH32 0x3C11D16CBAFFD01DF69CE1C404F6340EE057498F5F00246190EA54220576A848 PUSH2 0x73E DUP2 PUSH2 0x8BE JUMP JUMPDEST PUSH1 0x1 PUSH1 0x1 PUSH1 0xA0 SHL SUB DUP5 AND PUSH2 0x794 JUMPI PUSH1 0x40 MLOAD PUSH3 0x461BCD PUSH1 0xE5 SHL DUP2 MSTORE PUSH1 0x20 PUSH1 0x4 DUP3 ADD MSTORE PUSH1 0x1D PUSH1 0x24 DUP3 ADD MSTORE PUSH32 0x43616E6E6F74206275726E2066726F6D207A65726F2061646472657373000000 PUSH1 0x44 DUP3 ADD MSTORE PUSH1 0x64 ADD PUSH2 0x62F JUMP JUMPDEST PUSH2 0x79E DUP5 DUP5 PUSH2 0x9CC JUMP JUMPDEST DUP4 PUSH1 0x1 PUSH1 0x1 PUSH1 0xA0 SHL SUB AND PUSH32 0xFAD31924D655455395C87544C8AA1FFDB5A7505A22A3C2E03F28003B6556A75F DUP5 DUP5 PUSH1 0x40 MLOAD PUSH2 0x6E1 SWAP3 SWAP2 SWAP1 PUSH2 0xF42 JUMP JUMPDEST PUSH2 0x4DC DUP4 DUP4 DUP4 PUSH1 0x1 PUSH2 0xA38 JUMP JUMPDEST PUSH1 0x1 PUSH1 0x1 PUSH1 0xA0 SHL SUB DUP4 DUP2 AND PUSH1 0x0 SWAP1 DUP2 MSTORE PUSH1 0x1 PUSH1 0x20 SWAP1 DUP2 MSTORE PUSH1 0x40 DUP1 DUP4 KECCAK256 SWAP4 DUP7 AND DUP4 MSTORE SWAP3 SWAP1 MSTORE KECCAK256 SLOAD PUSH1 0x0 NOT DUP2 LT ISZERO PUSH2 0x4A3 JUMPI DUP2 DUP2 LT ISZERO PUSH2 0x850 JUMPI PUSH1 0x40 MLOAD PUSH4 0x7DC7A0D9 PUSH1 0xE1 SHL DUP2 MSTORE PUSH1 0x1 PUSH1 0x1 PUSH1 0xA0 SHL SUB DUP5 AND PUSH1 0x4 DUP3 ADD MSTORE PUSH1 0x24 DUP2 ADD DUP3 SWAP1 MSTORE PUSH1 0x44 DUP2 ADD DUP4 SWAP1 MSTORE PUSH1 0x64 ADD PUSH2 0x62F JUMP JUMPDEST PUSH2 0x4A3 DUP5 DUP5 DUP5 DUP5 SUB PUSH1 0x0 PUSH2 0xA38 JUMP JUMPDEST PUSH1 0x1 PUSH1 0x1 PUSH1 0xA0 SHL SUB DUP4 AND PUSH2 0x889 JUMPI PUSH1 0x40 MLOAD PUSH4 0x4B637E8F PUSH1 0xE1 SHL DUP2 MSTORE PUSH1 0x0 PUSH1 0x4 DUP3 ADD MSTORE PUSH1 0x24 ADD PUSH2 0x62F JUMP JUMPDEST PUSH1 0x1 PUSH1 0x1 PUSH1 0xA0 SHL SUB DUP3 AND PUSH2 0x8B3 JUMPI PUSH1 0x40 MLOAD PUSH4 0xEC442F05 PUSH1 0xE0 SHL DUP2 MSTORE PUSH1 0x0 PUSH1 0x4 DUP3 ADD MSTORE PUSH1 0x24 ADD PUSH2 0x62F JUMP JUMPDEST PUSH2 0x4DC DUP4 DUP4 DUP4 PUSH2 0xB0D JUMP JUMPDEST PUSH2 0x8C8 DUP2 CALLER PUSH2 0xC37 JUMP JUMPDEST POP JUMP JUMPDEST PUSH1 0x0 PUSH2 0x8D7 DUP4 DUP4 PUSH2 0x56B JUMP JUMPDEST PUSH2 0x957 JUMPI PUSH1 0x0 DUP4 DUP2 MSTORE PUSH1 0x5 PUSH1 0x20 SWAP1 DUP2 MSTORE PUSH1 0x40 DUP1 DUP4 KECCAK256 PUSH1 0x1 PUSH1 0x1 PUSH1 0xA0 SHL SUB DUP7 AND DUP5 MSTORE SWAP1 SWAP2 MSTORE SWAP1 KECCAK256 DUP1 SLOAD PUSH1 0xFF NOT AND PUSH1 0x1 OR SWAP1 SSTORE PUSH2 0x90F CALLER SWAP1 JUMP JUMPDEST PUSH1 0x1 PUSH1 0x1 PUSH1 0xA0 SHL SUB AND DUP3 PUSH1 0x1 PUSH1 0x1 PUSH1 0xA0 SHL SUB AND DUP5 PUSH32 0x2F8788117E7EFF1D82E926EC794901D17C78024A50270940304540A733656F0D PUSH1 0x40 MLOAD PUSH1 0x40 MLOAD DUP1 SWAP2 SUB SWAP1 LOG4 POP PUSH1 0x1 PUSH2 0x3AA JUMP JUMPDEST POP PUSH1 0x0 PUSH2 0x3AA JUMP JUMPDEST PUSH1 0x0 PUSH2 0x96B DUP4 DUP4 PUSH2 0x56B JUMP JUMPDEST ISZERO PUSH2 0x957 JUMPI PUSH1 0x0 DUP4 DUP2 MSTORE PUSH1 0x5 PUSH1 0x20 SWAP1 DUP2 MSTORE PUSH1 0x40 DUP1 DUP4 KECCAK256 PUSH1 0x1 PUSH1 0x1 PUSH1 0xA0 SHL SUB DUP7 AND DUP1 DUP6 MSTORE SWAP3 MSTORE DUP1 DUP4 KECCAK256 DUP1 SLOAD PUSH1 0xFF NOT AND SWAP1 SSTORE MLOAD CALLER SWAP3 DUP7 SWAP2 PUSH32 0xF6391F5C32D9C69D2A47EA670B442974B53935D1EDC7FD64EB21E047A839171B SWAP2 SWAP1 LOG4 POP PUSH1 0x1 PUSH2 0x3AA JUMP JUMPDEST PUSH1 0x1 PUSH1 0x1 PUSH1 0xA0 SHL SUB DUP3 AND PUSH2 0x9F6 JUMPI PUSH1 0x40 MLOAD PUSH4 0x4B637E8F PUSH1 0xE1 SHL DUP2 MSTORE PUSH1 0x0 PUSH1 0x4 DUP3 ADD MSTORE PUSH1 0x24 ADD PUSH2 0x62F JUMP JUMPDEST PUSH2 0x567 DUP3 PUSH1 0x0 DUP4 PUSH2 0xB0D JUMP JUMPDEST PUSH1 0x1 PUSH1 0x1 PUSH1 0xA0 SHL SUB DUP3 AND PUSH2 0xA2C JUMPI PUSH1 0x40 MLOAD PUSH4 0xEC442F05 PUSH1 0xE0 SHL DUP2 MSTORE PUSH1 0x0 PUSH1 0x4 DUP3 ADD MSTORE PUSH1 0x24 ADD PUSH2 0x62F JUMP JUMPDEST PUSH2 0x567 PUSH1 0x0 DUP4 DUP4 PUSH2 0xB0D JUMP JUMPDEST PUSH1 0x1 PUSH1 0x1 PUSH1 0xA0 SHL SUB DUP5 AND PUSH2 0xA62 JUMPI PUSH1 0x40 MLOAD PUSH4 0xE602DF05 PUSH1 0xE0 SHL DUP2 MSTORE PUSH1 0x0 PUSH1 0x4 DUP3 ADD MSTORE PUSH1 0x24 ADD PUSH2 0x62F JUMP JUMPDEST PUSH1 0x1 PUSH1 0x1 PUSH1 0xA0 SHL SUB DUP4 AND PUSH2 0xA8C JUMPI PUSH1 0x40 MLOAD PUSH4 0x4A1406B1 PUSH1 0xE1 SHL DUP2 MSTORE PUSH1 0x0 PUSH1 0x4 DUP3 ADD MSTORE PUSH1 0x24 ADD PUSH2 0x62F JUMP JUMPDEST PUSH1 0x1 PUSH1 0x1 PUSH1 0xA0 SHL SUB DUP1 DUP6 AND PUSH1 0x0 SWAP1 DUP2 MSTORE PUSH1 0x1 PUSH1 0x20 SWAP1 DUP2 MSTORE PUSH1 0x40 DUP1 DUP4 KECCAK256 SWAP4 DUP8 AND DUP4 MSTORE SWAP3 SWAP1 MSTORE KECCAK256 DUP3 SWAP1 SSTORE DUP1 ISZERO PUSH2 0x4A3 JUMPI DUP3 PUSH1 0x1 PUSH1 0x1 PUSH1 0xA0 SHL SUB AND DUP5 PUSH1 0x1 PUSH1 0x1 PUSH1 0xA0 SHL SUB AND PUSH32 0x8C5BE1E5EBEC7D5BD14F71427D1E84F3DD0314C0F7B2291E5B200AC8C7C3B925 DUP5 PUSH1 0x40 MLOAD PUSH2 0xAFF SWAP2 DUP2 MSTORE PUSH1 0x20 ADD SWAP1 JUMP JUMPDEST PUSH1 0x40 MLOAD DUP1 SWAP2 SUB SWAP1 LOG3 POP POP POP POP JUMP JUMPDEST PUSH1 0x1 PUSH1 0x1 PUSH1 0xA0 SHL SUB DUP4 AND PUSH2 0xB38 JUMPI DUP1 PUSH1 0x2 PUSH1 0x0 DUP3 DUP3 SLOAD PUSH2 0xB2D SWAP2 SWAP1 PUSH2 0xF21 JUMP JUMPDEST SWAP1 SWAP2 SSTORE POP PUSH2 0xBAA SWAP1 POP JUMP JUMPDEST PUSH1 0x1 PUSH1 0x1 PUSH1 0xA0 SHL SUB DUP4 AND PUSH1 0x0 SWAP1 DUP2 MSTORE PUSH1 0x20 DUP2 SWAP1 MSTORE PUSH1 0x40 SWAP1 KECCAK256 SLOAD DUP2 DUP2 LT ISZERO PUSH2 0xB8B JUMPI PUSH1 0x40 MLOAD PUSH4 0x391434E3 PUSH1 0xE2 SHL DUP2 MSTORE PUSH1 0x1 PUSH1 0x1 PUSH1 0xA0 SHL SUB DUP6 AND PUSH1 0x4 DUP3 ADD MSTORE PUSH1 0x24 DUP2 ADD DUP3 SWAP1 MSTORE PUSH1 0x44 DUP2 ADD DUP4 SWAP1 MSTORE PUSH1 0x64 ADD PUSH2 0x62F JUMP JUMPDEST PUSH1 0x1 PUSH1 0x1 PUSH1 0xA0 SHL SUB DUP5 AND PUSH1 0x0 SWAP1 DUP2 MSTORE PUSH1 0x20 DUP2 SWAP1 MSTORE PUSH1 0x40 SWAP1 KECCAK256 SWAP1 DUP3 SWAP1 SUB SWAP1 SSTORE JUMPDEST PUSH1 0x1 PUSH1 0x1 PUSH1 0xA0 SHL SUB DUP3 AND PUSH2 0xBC6 JUMPI PUSH1 0x2 DUP1 SLOAD DUP3 SWAP1 SUB SWAP1 SSTORE PUSH2 0xBE5 JUMP JUMPDEST PUSH1 0x1 PUSH1 0x1 PUSH1 0xA0 SHL SUB DUP3 AND PUSH1 0x0 SWAP1 DUP2 MSTORE PUSH1 0x20 DUP2 SWAP1 MSTORE PUSH1 0x40 SWAP1 KECCAK256 DUP1 SLOAD DUP3 ADD SWAP1 SSTORE JUMPDEST DUP2 PUSH1 0x1 PUSH1 0x1 PUSH1 0xA0 SHL SUB AND DUP4 PUSH1 0x1 PUSH1 0x1 PUSH1 0xA0 SHL SUB AND PUSH32 0xDDF252AD1BE2C89B69C2B068FC378DAA952BA7F163C4A11628F55A4DF523B3EF DUP4 PUSH1 0x40 MLOAD PUSH2 0xC2A SWAP2 DUP2 MSTORE PUSH1 0x20 ADD SWAP1 JUMP JUMPDEST PUSH1 0x40 MLOAD DUP1 SWAP2 SUB SWAP1 LOG3 POP POP POP JUMP JUMPDEST PUSH2 0xC41 DUP3 DUP3 PUSH2 0x56B JUMP JUMPDEST PUSH2 0x567 JUMPI PUSH1 0x40 MLOAD PUSH4 0xE2517D3F PUSH1 0xE0 SHL DUP2 MSTORE PUSH1 0x1 PUSH1 0x1 PUSH1 0xA0 SHL SUB DUP3 AND PUSH1 0x4 DUP3 ADD MSTORE PUSH1 0x24 DUP2 ADD DUP4 SWAP1 MSTORE PUSH1 0x44 ADD PUSH2 0x62F JUMP JUMPDEST PUSH1 0x0 PUSH1 0x20 DUP3 DUP5 SUB SLT ISZERO PUSH2 0xC82 JUMPI PUSH1 0x0 DUP1 REVERT JUMPDEST DUP2 CALLDATALOAD PUSH1 0x1 PUSH1 0x1 PUSH1 0xE0 SHL SUB NOT DUP2 AND DUP2 EQ PUSH2 0xC9A JUMPI PUSH1 0x0 DUP1 REVERT JUMPDEST SWAP4 SWAP3 POP POP POP JUMP JUMPDEST PUSH1 0x0 DUP2 MLOAD DUP1 DUP5 MSTORE PUSH1 0x0 JUMPDEST DUP2 DUP2 LT ISZERO PUSH2 0xCC7 JUMPI PUSH1 0x20 DUP2 DUP6 ADD DUP2 ADD MLOAD DUP7 DUP4 ADD DUP3 ADD MSTORE ADD PUSH2 0xCAB JUMP JUMPDEST POP PUSH1 0x0 PUSH1 0x20 DUP3 DUP7 ADD ADD MSTORE PUSH1 0x20 PUSH1 0x1F NOT PUSH1 0x1F DUP4 ADD AND DUP6 ADD ADD SWAP2 POP POP SWAP3 SWAP2 POP POP JUMP JUMPDEST PUSH1 0x20 DUP2 MSTORE PUSH1 0x0 PUSH2 0xC9A PUSH1 0x20 DUP4 ADD DUP5 PUSH2 0xCA1 JUMP JUMPDEST DUP1 CALLDATALOAD PUSH1 0x1 PUSH1 0x1 PUSH1 0xA0 SHL SUB DUP2 AND DUP2 EQ PUSH2 0xD11 JUMPI PUSH1 0x0 DUP1 REVERT JUMPDEST SWAP2 SWAP1 POP JUMP JUMPDEST PUSH1 0x0 DUP1 PUSH1 0x40 DUP4 DUP6 SUB SLT ISZERO PUSH2 0xD29 JUMPI PUSH1 0x0 DUP1 REVERT JUMPDEST PUSH2 0xD32 DUP4 PUSH2 0xCFA JUMP JUMPDEST SWAP5 PUSH1 0x20 SWAP4 SWAP1 SWAP4 ADD CALLDATALOAD SWAP4 POP POP POP JUMP JUMPDEST PUSH1 0x0 DUP1 PUSH1 0x0 PUSH1 0x60 DUP5 DUP7 SUB SLT ISZERO PUSH2 0xD55 JUMPI PUSH1 0x0 DUP1 REVERT JUMPDEST PUSH2 0xD5E DUP5 PUSH2 0xCFA JUMP JUMPDEST SWAP3 POP PUSH2 0xD6C PUSH1 0x20 DUP6 ADD PUSH2 0xCFA JUMP JUMPDEST SWAP2 POP PUSH1 0x40 DUP5 ADD CALLDATALOAD SWAP1 POP SWAP3 POP SWAP3 POP SWAP3 JUMP JUMPDEST PUSH1 0x0 PUSH1 0x20 DUP3 DUP5 SUB SLT ISZERO PUSH2 0xD8E JUMPI PUSH1 0x0 DUP1 REVERT JUMPDEST POP CALLDATALOAD SWAP2 SWAP1 POP JUMP JUMPDEST PUSH1 0x0 DUP1 PUSH1 0x40 DUP4 DUP6 SUB SLT ISZERO PUSH2 0xDA8 JUMPI PUSH1 0x0 DUP1 REVERT JUMPDEST DUP3 CALLDATALOAD SWAP2 POP PUSH2 0xDB8 PUSH1 0x20 DUP5 ADD PUSH2 0xCFA JUMP JUMPDEST SWAP1 POP SWAP3 POP SWAP3 SWAP1 POP JUMP JUMPDEST PUSH1 0x0 PUSH1 0x20 DUP3 DUP5 SUB SLT ISZERO PUSH2 0xDD3 JUMPI PUSH1 0x0 DUP1 REVERT JUMPDEST PUSH2 0xC9A DUP3 PUSH2 0xCFA JUMP JUMPDEST PUSH4 0x4E487B71 PUSH1 0xE0 SHL PUSH1 0x0 MSTORE PUSH1 0x41 PUSH1 0x4 MSTORE PUSH1 0x24 PUSH1 0x0 REVERT JUMPDEST PUSH1 0x0 DUP1 PUSH1 0x0 PUSH1 0x60 DUP5 DUP7 SUB SLT ISZERO PUSH2 0xE07 JUMPI PUSH1 0x0 DUP1 REVERT JUMPDEST PUSH2 0xE10 DUP5 PUSH2 0xCFA JUMP JUMPDEST SWAP3 POP PUSH1 0x20 DUP5 ADD CALLDATALOAD SWAP2 POP PUSH1 0x40 DUP5 ADD CALLDATALOAD PUSH8 0xFFFFFFFFFFFFFFFF DUP1 DUP3 GT ISZERO PUSH2 0xE34 JUMPI PUSH1 0x0 DUP1 REVERT JUMPDEST DUP2 DUP7 ADD SWAP2 POP DUP7 PUSH1 0x1F DUP4 ADD SLT PUSH2 0xE48 JUMPI PUSH1 0x0 DUP1 REVERT JUMPDEST DUP2 CALLDATALOAD DUP2 DUP2 GT ISZERO PUSH2 0xE5A JUMPI PUSH2 0xE5A PUSH2 0xDDC JUMP JUMPDEST PUSH1 0x40 MLOAD PUSH1 0x1F DUP3 ADD PUSH1 0x1F NOT SWAP1 DUP2 AND PUSH1 0x3F ADD AND DUP2 ADD SWAP1 DUP4 DUP3 GT DUP2 DUP4 LT OR ISZERO PUSH2 0xE82 JUMPI PUSH2 0xE82 PUSH2 0xDDC JUMP JUMPDEST DUP2 PUSH1 0x40 MSTORE DUP3 DUP2 MSTORE DUP10 PUSH1 0x20 DUP5 DUP8 ADD ADD GT ISZERO PUSH2 0xE9B JUMPI PUSH1 0x0 DUP1 REVERT JUMPDEST DUP3 PUSH1 0x20 DUP7 ADD PUSH1 0x20 DUP4 ADD CALLDATACOPY PUSH1 0x0 PUSH1 0x20 DUP5 DUP4 ADD ADD MSTORE DUP1 SWAP6 POP POP POP POP POP POP SWAP3 POP SWAP3 POP SWAP3 JUMP JUMPDEST PUSH1 0x0 DUP1 PUSH1 0x40 DUP4 DUP6 SUB SLT ISZERO PUSH2 0xED0 JUMPI PUSH1 0x0 DUP1 REVERT JUMPDEST PUSH2 0xED9 DUP4 PUSH2 0xCFA JUMP JUMPDEST SWAP2 POP PUSH2 0xDB8 PUSH1 0x20 DUP5 ADD PUSH2 0xCFA JUMP JUMPDEST PUSH1 0x1 DUP2 DUP2 SHR SWAP1 DUP3 AND DUP1 PUSH2 0xEFB JUMPI PUSH1 0x7F DUP3 AND SWAP2 POP JUMPDEST PUSH1 0x20 DUP3 LT DUP2 SUB PUSH2 0xF1B JUMPI PUSH4 0x4E487B71 PUSH1 0xE0 SHL PUSH1 0x0 MSTORE PUSH1 0x22 PUSH1 0x4 MSTORE PUSH1 0x24 PUSH1 0x0 REVERT JUMPDEST POP SWAP2 SWAP1 POP JUMP JUMPDEST DUP1 DUP3 ADD DUP1 DUP3 GT ISZERO PUSH2 0x3AA JUMPI PUSH4 0x4E487B71 PUSH1 0xE0 SHL PUSH1 0x0 MSTORE PUSH1 0x11 PUSH1 0x4 MSTORE PUSH1 0x24 PUSH1 0x0 REVERT JUMPDEST DUP3 DUP2 MSTORE PUSH1 0x40 PUSH1 0x20 DUP3 ADD MSTORE PUSH1 0x0 PUSH2 0xF5B PUSH1 0x40 DUP4 ADD DUP5 PUSH2 0xCA1 JUMP JUMPDEST SWAP5 SWAP4 POP POP POP POP JUMP INVALID LOG2 PUSH5 0x6970667358 0x22 SLT KECCAK256 0x28 0xB9 CODECOPY 0xD4 SWAP1 0xEA 0xCF JUMP 0xAC SHL SMOD 0x5E ORIGIN CALLDATALOAD ORIGIN KECCAK256 0xCC DUP13 0xCB EXP 0x2B 0xE3 CHAINID 0xB5 0x23 SWAP8 0xA7 PUSH10 0xC8BDF7DD64736F6C6343 STOP ADDMOD EQ STOP CALLER "},"methodIdentifiers":{"BURNER_ROLE()":"282c51f3","DEFAULT_ADMIN_ROLE()":"a217fddf","MAX_SUPPLY()":"32cb6b0c","MINTER_ROLE()":"d5391393","allowance(address,address)":"dd62ed3e","approve(address,uint256)":"095ea7b3","balanceOf(address)":"70a08231","burn(uint256)":"42966c68","burnFrom(address,uint256)":"79cc6790","burnFromWithReason(address,uint256,string)":"d6b8de93","decimals()":"313ce567","getRoleAdmin(bytes32)":"248a9ca3","grantRole(bytes32,address)":"2f2ff15d","hasRole(bytes32,address)":"91d14854","mint(address,uint256,string)":"d3fc9864","name()":"06fdde03","renounceRole(bytes32,address)":"36568abe","revokeRole(bytes32,address)":"d547741f","supportsInterface(bytes4)":"01ffc9a7","symbol()":"95d89b41","totalSupply()":"18160ddd","transfer(address,uint256)":"a9059cbb","transferFrom(address,address,uint256)":"23b872dd"}}}}}